{
  "_format": "hh-sol-artifact-1",
  "contractName": "AssetsBridgeCaller",
  "sourceName": "contracts/AssetsBridgeCaller.sol",
  "abi": [
    {
      "anonymous": false,
      "inputs": [
        {
          "indexed": true,
          "internalType": "address",
          "name": "sourceToken",
          "type": "address"
        },
        {
          "indexed": true,
          "internalType": "address",
          "name": "mezoToken",
          "type": "address"
        }
      ],
      "name": "ERC20TokenMappingCreated",
      "type": "event"
    },
    {
      "anonymous": false,
      "inputs": [
        {
          "indexed": true,
          "internalType": "address",
          "name": "sourceToken",
          "type": "address"
        },
        {
          "indexed": true,
          "internalType": "address",
          "name": "mezoToken",
          "type": "address"
        }
      ],
      "name": "ERC20TokenMappingDeleted",
      "type": "event"
    },
    {
      "inputs": [
        {
          "components": [
            {
              "internalType": "uint256",
              "name": "sequenceNumber",
              "type": "uint256"
            },
            {
              "internalType": "address",
              "name": "recipient",
              "type": "address"
            },
            {
              "internalType": "uint256",
              "name": "amount",
              "type": "uint256"
            },
            {
              "internalType": "address",
              "name": "token",
              "type": "address"
            }
          ],
          "internalType": "struct AssetsLocked[]",
          "name": "events",
          "type": "tuple[]"
        }
      ],
      "name": "bridge",
      "outputs": [
        {
          "internalType": "bool",
          "name": "",
          "type": "bool"
        }
      ],
      "stateMutability": "nonpayable",
      "type": "function"
    },
    {
      "inputs": [
        {
          "internalType": "address",
          "name": "sourceToken",
          "type": "address"
        },
        {
          "internalType": "address",
          "name": "mezoToken",
          "type": "address"
        }
      ],
      "name": "createERC20TokenMapping",
      "outputs": [
        {
          "internalType": "bool",
          "name": "",
          "type": "bool"
        }
      ],
      "stateMutability": "nonpayable",
      "type": "function"
    },
    {
      "inputs": [
        {
          "internalType": "address",
          "name": "sourceToken",
          "type": "address"
        }
      ],
      "name": "deleteERC20TokenMapping",
      "outputs": [
        {
          "internalType": "bool",
          "name": "",
          "type": "bool"
        }
      ],
      "stateMutability": "nonpayable",
      "type": "function"
    },
    {
      "inputs": [
        {
          "internalType": "address",
          "name": "sourceToken",
          "type": "address"
        }
      ],
      "name": "getERC20TokenMapping",
      "outputs": [
        {
          "components": [
            {
              "internalType": "address",
              "name": "sourceToken",
              "type": "address"
            },
            {
              "internalType": "address",
              "name": "mezoToken",
              "type": "address"
            }
          ],
          "internalType": "struct ERC20TokenMapping",
          "name": "",
          "type": "tuple"
        }
      ],
      "stateMutability": "view",
      "type": "function"
    },
    {
      "inputs": [],
      "name": "getERC20TokensMappings",
      "outputs": [
        {
          "components": [
            {
              "internalType": "address",
              "name": "sourceToken",
              "type": "address"
            },
            {
              "internalType": "address",
              "name": "mezoToken",
              "type": "address"
            }
          ],
          "internalType": "struct ERC20TokenMapping[]",
          "name": "",
          "type": "tuple[]"
        }
      ],
      "stateMutability": "view",
      "type": "function"
    },
    {
      "inputs": [],
      "name": "getMaxERC20TokensMappings",
      "outputs": [
        {
          "internalType": "uint256",
          "name": "",
          "type": "uint256"
        }
      ],
      "stateMutability": "view",
      "type": "function"
    },
    {
      "inputs": [],
      "name": "getSourceBTCToken",
      "outputs": [
        {
          "internalType": "address",
          "name": "",
          "type": "address"
        }
      ],
      "stateMutability": "view",
      "type": "function"
    }
  ],
  "bytecode": "0x608060405234801561001057600080fd5b506108aa806100206000396000f3fe608060405234801561001057600080fd5b506004361061007d5760003560e01c806348a451c31161005b57806348a451c3146100dd5780637d1f3add146100fd578063b6b3b89f14610112578063c0b3cc191461012857600080fd5b806326c66d05146100825780633b5586eb146100aa5780633d236363146100bd575b600080fd5b61009561009036600461044f565b61013b565b60405190151581526020015b60405180910390f35b6100956100b836600461046c565b6101b7565b6100c561023b565b6040516001600160a01b0390911681526020016100a1565b6100f06100eb36600461044f565b6102ac565b6040516100a191906104a5565b61010561032d565b6040516100a191906104c9565b61011a61039d565b6040519081526020016100a1565b6100956101363660046105c0565b610409565b6040516326c66d0560e01b81526001600160a01b03821660048201526000906012611edf60921b01906326c66d05906024015b6020604051808303816000875af115801561018d573d6000803e3d6000fd5b505050506040513d601f19601f820116820180604052508101906101b191906106a2565b92915050565b604051633b5586eb60e01b81526001600160a01b038084166004830152821660248201526000906012611edf60921b0190633b5586eb906044016020604051808303816000875af1158015610210573d6000803e3d6000fd5b505050506040513d601f19601f8201168201806040525081019061023491906106a2565b9392505050565b60006012611edf60921b016001600160a01b0316633d2363636040518163ffffffff1660e01b8152600401602060405180830381865afa158015610283573d6000803e3d6000fd5b505050506040513d601f19601f820116820180604052508101906102a791906106c4565b905090565b6040805180820182526000808252602082015290516348a451c360e01b81526001600160a01b03831660048201526012611edf60921b01906348a451c3906024016040805180830381865afa158015610309573d6000803e3d6000fd5b505050506040513d601f19601f820116820180604052508101906101b19190610746565b60606012611edf60921b016001600160a01b0316637d1f3add6040518163ffffffff1660e01b8152600401600060405180830381865afa158015610375573d6000803e3d6000fd5b505050506040513d6000823e601f3d908101601f191682016040526102a79190810190610762565b60006012611edf60921b016001600160a01b031663b6b3b89f6040518163ffffffff1660e01b8152600401602060405180830381865afa1580156103e5573d6000803e3d6000fd5b505050506040513d601f19601f820116820180604052508101906102a791906107f8565b60405163c0b3cc1960e01b81526000906012611edf60921b019063c0b3cc199061016e908590600401610811565b6001600160a01b038116811461044c57600080fd5b50565b60006020828403121561046157600080fd5b813561023481610437565b6000806040838503121561047f57600080fd5b823561048a81610437565b9150602083013561049a81610437565b809150509250929050565b604081016101b1828480516001600160a01b03908116835260209182015116910152565b602080825282518282018190526000919060409081850190868401855b8281101561051f5761050f84835180516001600160a01b03908116835260209182015116910152565b92840192908501906001016104e6565b5091979650505050505050565b634e487b7160e01b600052604160045260246000fd5b6040516080810167ffffffffffffffff811182821017156105655761056561052c565b60405290565b604051601f8201601f1916810167ffffffffffffffff811182821017156105945761059461052c565b604052919050565b600067ffffffffffffffff8211156105b6576105b661052c565b5060051b60200190565b600060208083850312156105d357600080fd5b823567ffffffffffffffff8111156105ea57600080fd5b8301601f810185136105fb57600080fd5b803561060e6106098261059c565b61056b565b81815260079190911b8201830190838101908783111561062d57600080fd5b928401925b82841015610697576080848903121561064b5760008081fd5b610653610542565b843581528585013561066481610437565b818701526040858101359082015260608086013561068181610437565b9082015282526080939093019290840190610632565b979650505050505050565b6000602082840312156106b457600080fd5b8151801515811461023457600080fd5b6000602082840312156106d657600080fd5b815161023481610437565b6000604082840312156106f357600080fd5b6040516040810181811067ffffffffffffffff821117156107165761071661052c565b8060405250809150825161072981610437565b8152602083015161073981610437565b6020919091015292915050565b60006040828403121561075857600080fd5b61023483836106e1565b6000602080838503121561077557600080fd5b825167ffffffffffffffff81111561078c57600080fd5b8301601f8101851361079d57600080fd5b80516107ab6106098261059c565b8082825260208201915060208360061b8501019250878311156107cd57600080fd5b6020840193505b82841015610697576107e688856106e1565b825284820191506040840193506107d4565b60006020828403121561080a57600080fd5b5051919050565b602080825282518282018190526000919060409081850190868401855b8281101561051f57815180518552868101516001600160a01b0390811688870152868201518787015260609182015116908501526080909301929085019060010161082e56fea264697066735822122033075432d7292cdc9f08cafb215299208dff8456eadb52d478b3590568e9134264736f6c63430008180033",
  "linkReferences": {},
  "deployedLinkReferences": {}
}