{
  "_format": "hh-sol-artifact-1",
  "contractName": "BTCCaller",
  "sourceName": "contracts/BTCCaller.sol",
  "abi": [
    {
      "anonymous": false,
      "inputs": [
        {
          "indexed": true,
          "internalType": "address",
          "name": "owner",
          "type": "address"
        },
        {
          "indexed": true,
          "internalType": "address",
          "name": "spender",
          "type": "address"
        },
        {
          "indexed": false,
          "internalType": "uint256",
          "name": "value",
          "type": "uint256"
        }
      ],
      "name": "Approval",
      "type": "event"
    },
    {
      "anonymous": false,
      "inputs": [
        {
          "indexed": true,
          "internalType": "address",
          "name": "from",
          "type": "address"
        },
        {
          "indexed": true,
          "internalType": "address",
          "name": "to",
          "type": "address"
        },
        {
          "indexed": false,
          "internalType": "uint256",
          "name": "value",
          "type": "uint256"
        }
      ],
      "name": "Transfer",
      "type": "event"
    },
    {
      "inputs": [],
      "name": "DOMAIN_SEPARATOR",
      "outputs": [
        {
          "internalType": "bytes32",
          "name": "",
          "type": "bytes32"
        }
      ],
      "stateMutability": "view",
      "type": "function"
    },
    {
      "inputs": [],
      "name": "PERMIT_TYPEHASH",
      "outputs": [
        {
          "internalType": "bytes32",
          "name": "",
          "type": "bytes32"
        }
      ],
      "stateMutability": "pure",
      "type": "function"
    },
    {
      "inputs": [
        {
          "internalType": "address",
          "name": "owner",
          "type": "address"
        },
        {
          "internalType": "address",
          "name": "spender",
          "type": "address"
        }
      ],
      "name": "allowance",
      "outputs": [
        {
          "internalType": "uint256",
          "name": "",
          "type": "uint256"
        }
      ],
      "stateMutability": "view",
      "type": "function"
    },
    {
      "inputs": [
        {
          "internalType": "address",
          "name": "spender",
          "type": "address"
        },
        {
          "internalType": "uint256",
          "name": "value",
          "type": "uint256"
        }
      ],
      "name": "approve",
      "outputs": [
        {
          "internalType": "bool",
          "name": "",
          "type": "bool"
        }
      ],
      "stateMutability": "nonpayable",
      "type": "function"
    },
    {
      "inputs": [
        {
          "internalType": "address",
          "name": "account",
          "type": "address"
        }
      ],
      "name": "balanceOf",
      "outputs": [
        {
          "internalType": "uint256",
          "name": "",
          "type": "uint256"
        }
      ],
      "stateMutability": "view",
      "type": "function"
    },
    {
      "inputs": [],
      "name": "decimals",
      "outputs": [
        {
          "internalType": "uint8",
          "name": "",
          "type": "uint8"
        }
      ],
      "stateMutability": "view",
      "type": "function"
    },
    {
      "inputs": [],
      "name": "name",
      "outputs": [
        {
          "internalType": "string",
          "name": "",
          "type": "string"
        }
      ],
      "stateMutability": "view",
      "type": "function"
    },
    {
      "inputs": [
        {
          "internalType": "address",
          "name": "owner",
          "type": "address"
        }
      ],
      "name": "nonce",
      "outputs": [
        {
          "internalType": "uint256",
          "name": "",
          "type": "uint256"
        }
      ],
      "stateMutability": "view",
      "type": "function"
    },
    {
      "inputs": [
        {
          "internalType": "address",
          "name": "owner",
          "type": "address"
        },
        {
          "internalType": "address",
          "name": "spender",
          "type": "address"
        },
        {
          "internalType": "uint256",
          "name": "amount",
          "type": "uint256"
        },
        {
          "internalType": "uint256",
          "name": "deadline",
          "type": "uint256"
        },
        {
          "internalType": "uint8",
          "name": "v",
          "type": "uint8"
        },
        {
          "internalType": "bytes32",
          "name": "r",
          "type": "bytes32"
        },
        {
          "internalType": "bytes32",
          "name": "s",
          "type": "bytes32"
        }
      ],
      "name": "permit",
      "outputs": [
        {
          "internalType": "bool",
          "name": "",
          "type": "bool"
        }
      ],
      "stateMutability": "nonpayable",
      "type": "function"
    },
    {
      "inputs": [],
      "name": "symbol",
      "outputs": [
        {
          "internalType": "string",
          "name": "",
          "type": "string"
        }
      ],
      "stateMutability": "view",
      "type": "function"
    },
    {
      "inputs": [],
      "name": "totalSupply",
      "outputs": [
        {
          "internalType": "uint256",
          "name": "",
          "type": "uint256"
        }
      ],
      "stateMutability": "view",
      "type": "function"
    },
    {
      "inputs": [
        {
          "internalType": "address",
          "name": "to",
          "type": "address"
        },
        {
          "internalType": "uint256",
          "name": "value",
          "type": "uint256"
        }
      ],
      "name": "transfer",
      "outputs": [
        {
          "internalType": "bool",
          "name": "",
          "type": "bool"
        }
      ],
      "stateMutability": "nonpayable",
      "type": "function"
    },
    {
      "inputs": [
        {
          "internalType": "address",
          "name": "from",
          "type": "address"
        },
        {
          "internalType": "address",
          "name": "to",
          "type": "address"
        },
        {
          "internalType": "uint256",
          "name": "value",
          "type": "uint256"
        }
      ],
      "name": "transferFrom",
      "outputs": [
        {
          "internalType": "bool",
          "name": "",
          "type": "bool"
        }
      ],
      "stateMutability": "nonpayable",
      "type": "function"
    }
  ],
  "bytecode": "0x608060405234801561001057600080fd5b506109ec806100206000396000f3fe608060405234801561001057600080fd5b50600436106100cf5760003560e01c80633644e5151161008c57806395d89b411161006657806395d89b411461018e578063a9059cbb14610196578063d505accf146101a9578063dd62ed3e146101bc57600080fd5b80633644e5151461016057806370a082311461016857806370ae92d21461017b57600080fd5b806306fdde03146100d4578063095ea7b3146100f257806318160ddd1461011557806323b872dd1461012b57806330adf81f1461013e578063313ce56714610146575b600080fd5b6100dc6101cf565b6040516100e99190610719565b60405180910390f35b610105610100366004610768565b610241565b60405190151581526020016100e9565b61011d6102c2565b6040519081526020016100e9565b610105610139366004610792565b61032b565b61011d6103b4565b61014e6103f9565b60405160ff90911681526020016100e9565b61011d610462565b61011d6101763660046107ce565b6104a7565b61011d6101893660046107ce565b61051e565b6100dc610552565b6101056101a4366004610768565b610597565b6101056101b73660046107fb565b6105d2565b61011d6101ca366004610868565b61067d565b6060611edf60921b6001600160a01b03166306fdde036040518163ffffffff1660e01b8152600401600060405180830381865afa158015610214573d6000803e3d6000fd5b505050506040513d6000823e601f3d908101601f1916820160405261023c91908101906108b1565b905090565b60405163095ea7b360e01b81526001600160a01b038316600482015260248101829052600090611edf60921b9063095ea7b3906044015b6020604051808303816000875af1158015610297573d6000803e3d6000fd5b505050506040513d601f19601f820116820180604052508101906102bb919061095e565b9392505050565b6000611edf60921b6001600160a01b03166318160ddd6040518163ffffffff1660e01b8152600401602060405180830381865afa158015610307573d6000803e3d6000fd5b505050506040513d601f19601f8201168201806040525081019061023c9190610980565b6040516323b872dd60e01b81526001600160a01b0380851660048301528316602482015260448101829052600090611edf60921b906323b872dd906064016020604051808303816000875af1158015610388573d6000803e3d6000fd5b505050506040513d601f19601f820116820180604052508101906103ac919061095e565b949350505050565b6000611edf60921b6001600160a01b03166330adf81f6040518163ffffffff1660e01b8152600401602060405180830381865afa158015610307573d6000803e3d6000fd5b6000611edf60921b6001600160a01b031663313ce5676040518163ffffffff1660e01b8152600401602060405180830381865afa15801561043e573d6000803e3d6000fd5b505050506040513d601f19601f8201168201806040525081019061023c9190610999565b6000611edf60921b6001600160a01b0316633644e5156040518163ffffffff1660e01b8152600401602060405180830381865afa158015610307573d6000803e3d6000fd5b6040516370a0823160e01b81526001600160a01b0382166004820152600090611edf60921b906370a08231906024015b602060405180830381865afa1580156104f4573d6000803e3d6000fd5b505050506040513d601f19601f820116820180604052508101906105189190610980565b92915050565b604051633857496960e11b81526001600160a01b0382166004820152600090611edf60921b906370ae92d2906024016104d7565b6060611edf60921b6001600160a01b03166395d89b416040518163ffffffff1660e01b8152600401600060405180830381865afa158015610214573d6000803e3d6000fd5b60405163a9059cbb60e01b81526001600160a01b038316600482015260248101829052600090611edf60921b9063a9059cbb90604401610278565b60405163d505accf60e01b81526001600160a01b03808916600483015287166024820152604481018690526064810185905260ff8416608482015260a4810183905260c48101829052600090611edf60921b9063d505accf9060e4016020604051808303816000875af115801561064d573d6000803e3d6000fd5b505050506040513d601f19601f82011682018060405250810190610671919061095e565b98975050505050505050565b604051636eb1769f60e11b81526001600160a01b03808416600483015282166024820152600090611edf60921b9063dd62ed3e90604401602060405180830381865afa1580156106d1573d6000803e3d6000fd5b505050506040513d601f19601f820116820180604052508101906102bb9190610980565b60005b838110156107105781810151838201526020016106f8565b50506000910152565b60208152600082518060208401526107388160408501602087016106f5565b601f01601f19169190910160400192915050565b80356001600160a01b038116811461076357600080fd5b919050565b6000806040838503121561077b57600080fd5b6107848361074c565b946020939093013593505050565b6000806000606084860312156107a757600080fd5b6107b08461074c565b92506107be6020850161074c565b9150604084013590509250925092565b6000602082840312156107e057600080fd5b6102bb8261074c565b60ff811681146107f857600080fd5b50565b600080600080600080600060e0888a03121561081657600080fd5b61081f8861074c565b965061082d6020890161074c565b95506040880135945060608801359350608088013561084b816107e9565b9699959850939692959460a0840135945060c09093013592915050565b6000806040838503121561087b57600080fd5b6108848361074c565b91506108926020840161074c565b90509250929050565b634e487b7160e01b600052604160045260246000fd5b6000602082840312156108c357600080fd5b815167ffffffffffffffff808211156108db57600080fd5b818401915084601f8301126108ef57600080fd5b8151818111156109015761090161089b565b604051601f8201601f19908116603f011681019083821181831017156109295761092961089b565b8160405282815287602084870101111561094257600080fd5b6109538360208301602088016106f5565b979650505050505050565b60006020828403121561097057600080fd5b815180151581146102bb57600080fd5b60006020828403121561099257600080fd5b5051919050565b6000602082840312156109ab57600080fd5b81516102bb816107e956fea264697066735822122085ade31b4bd4e3024706d07ae23814f843ffdd78f0addf8101f72ee7cabdcbfa64736f6c63430008180033",
  "linkReferences": {},
  "deployedLinkReferences": {}
}