{
  "_format": "hh-sol-artifact-1",
  "contractName": "MaintenanceCaller",
  "sourceName": "contracts/MaintenanceCaller.sol",
  "abi": [
    {
      "inputs": [],
      "name": "getSupportNonEIP155Txs",
      "outputs": [
        {
          "internalType": "bool",
          "name": "",
          "type": "bool"
        }
      ],
      "stateMutability": "view",
      "type": "function"
    },
    {
      "inputs": [
        {
          "internalType": "address",
          "name": "precompile",
          "type": "address"
        },
        {
          "internalType": "bytes",
          "name": "code",
          "type": "bytes"
        }
      ],
      "name": "setPrecompileByteCode",
      "outputs": [
        {
          "internalType": "bool",
          "name": "",
          "type": "bool"
        }
      ],
      "stateMutability": "nonpayable",
      "type": "function"
    },
    {
      "inputs": [
        {
          "internalType": "bool",
          "name": "value",
          "type": "bool"
        }
      ],
      "name": "setSupportNonEIP155Txs",
      "outputs": [
        {
          "internalType": "bool",
          "name": "",
          "type": "bool"
        }
      ],
      "stateMutability": "nonpayable",
      "type": "function"
    }
  ],
  "bytecode": "0x608060405234801561001057600080fd5b50610343806100206000396000f3fe608060405234801561001057600080fd5b50600436106100415760003560e01c8063175116dd146100465780636e56ab8f1461006d57806394e7742a14610080575b600080fd5b6100596100543660046101ea565b610088565b604051901515815260200160405180910390f35b61005961007b36600461028c565b610105565b610059610179565b60405163175116dd60e01b81526000906013611edf60921b019063175116dd906100ba908790879087906004016102b0565b6020604051808303816000875af11580156100d9573d6000803e3d6000fd5b505050506040513d601f19601f820116820180604052508101906100fd91906102f0565b949350505050565b604051636e56ab8f60e01b815281151560048201526000906013611edf60921b0190636e56ab8f906024016020604051808303816000875af115801561014f573d6000803e3d6000fd5b505050506040513d601f19601f8201168201806040525081019061017391906102f0565b92915050565b60006013611edf60921b016001600160a01b03166394e7742a6040518163ffffffff1660e01b8152600401602060405180830381865afa1580156101c1573d6000803e3d6000fd5b505050506040513d601f19601f820116820180604052508101906101e591906102f0565b905090565b6000806000604084860312156101ff57600080fd5b83356001600160a01b038116811461021657600080fd5b9250602084013567ffffffffffffffff8082111561023357600080fd5b818601915086601f83011261024757600080fd5b81358181111561025657600080fd5b87602082850101111561026857600080fd5b6020830194508093505050509250925092565b801515811461028957600080fd5b50565b60006020828403121561029e57600080fd5b81356102a98161027b565b9392505050565b6001600160a01b03841681526040602082018190528101829052818360608301376000818301606090810191909152601f909201601f1916010192915050565b60006020828403121561030257600080fd5b81516102a98161027b56fea26469706673582212203a85a59493549e4c2f91cf44303dcb3a859707bb4cd1bfbda2a4416089cefc2064736f6c63430008180033",
  "linkReferences": {},
  "deployedLinkReferences": {}
}