{
  "_format": "hh-sol-artifact-1",
  "contractName": "PriceOracleCaller",
  "sourceName": "contracts/PriceOracleCaller.sol",
  "abi": [
    {
      "inputs": [],
      "name": "decimals",
      "outputs": [
        {
          "internalType": "uint8",
          "name": "",
          "type": "uint8"
        }
      ],
      "stateMutability": "view",
      "type": "function"
    },
    {
      "inputs": [],
      "name": "latestRoundData",
      "outputs": [
        {
          "internalType": "uint80",
          "name": "roundId",
          "type": "uint80"
        },
        {
          "internalType": "int256",
          "name": "answer",
          "type": "int256"
        },
        {
          "internalType": "uint256",
          "name": "startedAt",
          "type": "uint256"
        },
        {
          "internalType": "uint256",
          "name": "updatedAt",
          "type": "uint256"
        },
        {
          "internalType": "uint80",
          "name": "answeredInRound",
          "type": "uint80"
        }
      ],
      "stateMutability": "view",
      "type": "function"
    }
  ],
  "bytecode": "0x608060405234801561001057600080fd5b5061025c806100206000396000f3fe608060405234801561001057600080fd5b50600436106100365760003560e01c8063313ce5671461003b578063feaf968c1461005a575b600080fd5b610043610099565b60405160ff90911681526020015b60405180910390f35b61006261010a565b6040805169ffffffffffffffffffff968716815260208101959095528401929092526060830152909116608082015260a001610051565b60006015611edf60921b016001600160a01b031663313ce5676040518163ffffffff1660e01b8152600401602060405180830381865afa1580156100e1573d6000803e3d6000fd5b505050506040513d601f19601f82011682018060405250810190610105919061018d565b905090565b60008060008060006015611edf60921b016001600160a01b031663feaf968c6040518163ffffffff1660e01b815260040160a060405180830381865afa158015610158573d6000803e3d6000fd5b505050506040513d601f19601f8201168201806040525081019061017c91906101d6565b945094509450945094509091929394565b60006020828403121561019f57600080fd5b815160ff811681146101b057600080fd5b9392505050565b805169ffffffffffffffffffff811681146101d157600080fd5b919050565b600080600080600060a086880312156101ee57600080fd5b6101f7866101b7565b945060208601519350604086015192506060860151915061021a608087016101b7565b9050929550929590935056fea26469706673582212204001d31f13e9f9f19305125dce2c128e6e2d9f98159a33279598d69027a0640a64736f6c63430008180033",
  "linkReferences": {},
  "deployedLinkReferences": {}
}