{
  "_format": "hh-sol-artifact-1",
  "contractName": "UpgradeCaller",
  "sourceName": "contracts/UpgradeCaller.sol",
  "abi": [
    {
      "anonymous": false,
      "inputs": [
        {
          "indexed": false,
          "internalType": "string",
          "name": "name",
          "type": "string"
        },
        {
          "indexed": false,
          "internalType": "int64",
          "name": "height",
          "type": "int64"
        }
      ],
      "name": "PlanCanceled",
      "type": "event"
    },
    {
      "anonymous": false,
      "inputs": [
        {
          "indexed": false,
          "internalType": "string",
          "name": "name",
          "type": "string"
        },
        {
          "indexed": false,
          "internalType": "int64",
          "name": "height",
          "type": "int64"
        }
      ],
      "name": "PlanSubmitted",
      "type": "event"
    },
    {
      "inputs": [],
      "name": "cancelPlan",
      "outputs": [
        {
          "internalType": "bool",
          "name": "",
          "type": "bool"
        }
      ],
      "stateMutability": "nonpayable",
      "type": "function"
    },
    {
      "inputs": [],
      "name": "plan",
      "outputs": [
        {
          "internalType": "string",
          "name": "name",
          "type": "string"
        },
        {
          "internalType": "int64",
          "name": "height",
          "type": "int64"
        },
        {
          "internalType": "string",
          "name": "info",
          "type": "string"
        }
      ],
      "stateMutability": "view",
      "type": "function"
    },
    {
      "inputs": [
        {
          "internalType": "string",
          "name": "name",
          "type": "string"
        },
        {
          "internalType": "int64",
          "name": "height",
          "type": "int64"
        },
        {
          "internalType": "string",
          "name": "info",
          "type": "string"
        }
      ],
      "name": "submitPlan",
      "outputs": [
        {
          "internalType": "bool",
          "name": "",
          "type": "bool"
        }
      ],
      "stateMutability": "nonpayable",
      "type": "function"
    }
  ],
  "bytecode": "0x608060405234801561001057600080fd5b50610533806100206000396000f3fe608060405234801561001057600080fd5b50600436106100415760003560e01c806353e0657114610046578063d8b13f2214610066578063f75b4ddd14610089575b600080fd5b61004e610091565b60405161005d93929190610256565b60405180910390f35b6100796100743660046102df565b610110565b604051901515815260200161005d565b610079610193565b6060600060606014611edf60921b016001600160a01b03166353e065716040518163ffffffff1660e01b8152600401600060405180830381865afa1580156100dd573d6000803e3d6000fd5b505050506040513d6000823e601f3d908101601f1916820160405261010591908101906103f8565b925092509250909192565b604051636c589f9160e11b81526000906014611edf60921b019063d8b13f22906101469089908990899089908990600401610498565b6020604051808303816000875af1158015610165573d6000803e3d6000fd5b505050506040513d601f19601f8201168201806040525081019061018991906104d4565b9695505050505050565b60006014611edf60921b016001600160a01b031663f75b4ddd6040518163ffffffff1660e01b81526004016020604051808303816000875af11580156101dd573d6000803e3d6000fd5b505050506040513d601f19601f8201168201806040525081019061020191906104d4565b905090565b60005b83811015610221578181015183820152602001610209565b50506000910152565b60008151808452610242816020860160208601610206565b601f01601f19169290920160200192915050565b606081526000610269606083018661022a565b8460070b60208401528281036040840152610189818561022a565b60008083601f84011261029657600080fd5b50813567ffffffffffffffff8111156102ae57600080fd5b6020830191508360208285010111156102c657600080fd5b9250929050565b8060070b81146102dc57600080fd5b50565b6000806000806000606086880312156102f757600080fd5b853567ffffffffffffffff8082111561030f57600080fd5b61031b89838a01610284565b909750955060208801359150610330826102cd565b9093506040870135908082111561034657600080fd5b5061035388828901610284565b969995985093965092949392505050565b634e487b7160e01b600052604160045260246000fd5b600082601f83011261038b57600080fd5b815167ffffffffffffffff808211156103a6576103a6610364565b604051601f8301601f19908116603f011681019082821181831017156103ce576103ce610364565b816040528381528660208588010111156103e757600080fd5b610189846020830160208901610206565b60008060006060848603121561040d57600080fd5b835167ffffffffffffffff8082111561042557600080fd5b6104318783880161037a565b945060208601519150610443826102cd565b60408601519193508082111561045857600080fd5b506104658682870161037a565b9150509250925092565b81835281816020850137506000828201602090810191909152601f909101601f19169091010190565b6060815260006104ac60608301878961046f565b8560070b602084015282810360408401526104c881858761046f565b98975050505050505050565b6000602082840312156104e657600080fd5b815180151581146104f657600080fd5b939250505056fea264697066735822122062490fdd9710fbf0a6466d6e7bf9bf45801ad57922f60b86c168a22e03c22c4664736f6c63430008180033",
  "linkReferences": {},
  "deployedLinkReferences": {}
}