{
  "_format": "hh-sol-artifact-1",
  "contractName": "ValidatorPoolCaller",
  "sourceName": "contracts/ValidatorPoolCaller.sol",
  "abi": [
    {
      "anonymous": false,
      "inputs": [
        {
          "indexed": true,
          "internalType": "address",
          "name": "operator",
          "type": "address"
        }
      ],
      "name": "ApplicationApproved",
      "type": "event"
    },
    {
      "anonymous": false,
      "inputs": [
        {
          "indexed": true,
          "internalType": "address",
          "name": "operator",
          "type": "address"
        },
        {
          "indexed": true,
          "internalType": "bytes32",
          "name": "consPubKey",
          "type": "bytes32"
        },
        {
          "components": [
            {
              "internalType": "string",
              "name": "moniker",
              "type": "string"
            },
            {
              "internalType": "string",
              "name": "identity",
              "type": "string"
            },
            {
              "internalType": "string",
              "name": "website",
              "type": "string"
            },
            {
              "internalType": "string",
              "name": "securityContact",
              "type": "string"
            },
            {
              "internalType": "string",
              "name": "details",
              "type": "string"
            }
          ],
          "indexed": false,
          "internalType": "struct Description",
          "name": "description",
          "type": "tuple"
        }
      ],
      "name": "ApplicationSubmitted",
      "type": "event"
    },
    {
      "anonymous": false,
      "inputs": [],
      "name": "ApplicationsCleaned",
      "type": "event"
    },
    {
      "anonymous": false,
      "inputs": [
        {
          "indexed": true,
          "internalType": "address",
          "name": "previousOwner",
          "type": "address"
        },
        {
          "indexed": true,
          "internalType": "address",
          "name": "newOwner",
          "type": "address"
        }
      ],
      "name": "OwnershipTransferStarted",
      "type": "event"
    },
    {
      "anonymous": false,
      "inputs": [
        {
          "indexed": true,
          "internalType": "address",
          "name": "previousOwner",
          "type": "address"
        },
        {
          "indexed": true,
          "internalType": "address",
          "name": "newOwner",
          "type": "address"
        }
      ],
      "name": "OwnershipTransferred",
      "type": "event"
    },
    {
      "anonymous": false,
      "inputs": [
        {
          "indexed": true,
          "internalType": "address",
          "name": "operator",
          "type": "address"
        },
        {
          "indexed": true,
          "internalType": "uint8",
          "name": "privilegeId",
          "type": "uint8"
        }
      ],
      "name": "PrivilegeAdded",
      "type": "event"
    },
    {
      "anonymous": false,
      "inputs": [
        {
          "indexed": true,
          "internalType": "address",
          "name": "operator",
          "type": "address"
        },
        {
          "indexed": true,
          "internalType": "uint8",
          "name": "privilegeId",
          "type": "uint8"
        }
      ],
      "name": "PrivilegeRemoved",
      "type": "event"
    },
    {
      "anonymous": false,
      "inputs": [
        {
          "indexed": true,
          "internalType": "address",
          "name": "operator",
          "type": "address"
        }
      ],
      "name": "ValidatorJoined",
      "type": "event"
    },
    {
      "anonymous": false,
      "inputs": [
        {
          "indexed": true,
          "internalType": "address",
          "name": "operator",
          "type": "address"
        }
      ],
      "name": "ValidatorKicked",
      "type": "event"
    },
    {
      "anonymous": false,
      "inputs": [
        {
          "indexed": true,
          "internalType": "address",
          "name": "operator",
          "type": "address"
        }
      ],
      "name": "ValidatorLeft",
      "type": "event"
    },
    {
      "inputs": [],
      "name": "acceptOwnership",
      "outputs": [
        {
          "internalType": "bool",
          "name": "",
          "type": "bool"
        }
      ],
      "stateMutability": "nonpayable",
      "type": "function"
    },
    {
      "inputs": [
        {
          "internalType": "address[]",
          "name": "operators",
          "type": "address[]"
        },
        {
          "internalType": "uint8",
          "name": "privilegeId",
          "type": "uint8"
        }
      ],
      "name": "addPrivilege",
      "outputs": [
        {
          "internalType": "bool",
          "name": "",
          "type": "bool"
        }
      ],
      "stateMutability": "nonpayable",
      "type": "function"
    },
    {
      "inputs": [
        {
          "internalType": "address",
          "name": "operator",
          "type": "address"
        }
      ],
      "name": "application",
      "outputs": [
        {
          "internalType": "bytes32",
          "name": "consPubKey",
          "type": "bytes32"
        },
        {
          "components": [
            {
              "internalType": "string",
              "name": "moniker",
              "type": "string"
            },
            {
              "internalType": "string",
              "name": "identity",
              "type": "string"
            },
            {
              "internalType": "string",
              "name": "website",
              "type": "string"
            },
            {
              "internalType": "string",
              "name": "securityContact",
              "type": "string"
            },
            {
              "internalType": "string",
              "name": "details",
              "type": "string"
            }
          ],
          "internalType": "struct Description",
          "name": "description",
          "type": "tuple"
        }
      ],
      "stateMutability": "view",
      "type": "function"
    },
    {
      "inputs": [],
      "name": "applications",
      "outputs": [
        {
          "internalType": "address[]",
          "name": "",
          "type": "address[]"
        }
      ],
      "stateMutability": "view",
      "type": "function"
    },
    {
      "inputs": [
        {
          "internalType": "address",
          "name": "operator",
          "type": "address"
        }
      ],
      "name": "approveApplication",
      "outputs": [
        {
          "internalType": "bool",
          "name": "",
          "type": "bool"
        }
      ],
      "stateMutability": "nonpayable",
      "type": "function"
    },
    {
      "inputs": [],
      "name": "candidateOwner",
      "outputs": [
        {
          "internalType": "address",
          "name": "",
          "type": "address"
        }
      ],
      "stateMutability": "view",
      "type": "function"
    },
    {
      "inputs": [],
      "name": "cleanupApplications",
      "outputs": [
        {
          "internalType": "bool",
          "name": "",
          "type": "bool"
        }
      ],
      "stateMutability": "nonpayable",
      "type": "function"
    },
    {
      "inputs": [
        {
          "internalType": "address",
          "name": "operator",
          "type": "address"
        }
      ],
      "name": "kick",
      "outputs": [
        {
          "internalType": "bool",
          "name": "",
          "type": "bool"
        }
      ],
      "stateMutability": "nonpayable",
      "type": "function"
    },
    {
      "inputs": [],
      "name": "leave",
      "outputs": [
        {
          "internalType": "bool",
          "name": "",
          "type": "bool"
        }
      ],
      "stateMutability": "nonpayable",
      "type": "function"
    },
    {
      "inputs": [],
      "name": "owner",
      "outputs": [
        {
          "internalType": "address",
          "name": "",
          "type": "address"
        }
      ],
      "stateMutability": "view",
      "type": "function"
    },
    {
      "inputs": [],
      "name": "privileges",
      "outputs": [
        {
          "components": [
            {
              "internalType": "uint8",
              "name": "id",
              "type": "uint8"
            },
            {
              "internalType": "string",
              "name": "name",
              "type": "string"
            }
          ],
          "internalType": "struct Privilege[]",
          "name": "",
          "type": "tuple[]"
        }
      ],
      "stateMutability": "view",
      "type": "function"
    },
    {
      "inputs": [
        {
          "internalType": "address[]",
          "name": "operators",
          "type": "address[]"
        },
        {
          "internalType": "uint8",
          "name": "privilegeId",
          "type": "uint8"
        }
      ],
      "name": "removePrivilege",
      "outputs": [
        {
          "internalType": "bool",
          "name": "",
          "type": "bool"
        }
      ],
      "stateMutability": "nonpayable",
      "type": "function"
    },
    {
      "inputs": [
        {
          "internalType": "bytes32",
          "name": "consPubKey",
          "type": "bytes32"
        },
        {
          "components": [
            {
              "internalType": "string",
              "name": "moniker",
              "type": "string"
            },
            {
              "internalType": "string",
              "name": "identity",
              "type": "string"
            },
            {
              "internalType": "string",
              "name": "website",
              "type": "string"
            },
            {
              "internalType": "string",
              "name": "securityContact",
              "type": "string"
            },
            {
              "internalType": "string",
              "name": "details",
              "type": "string"
            }
          ],
          "internalType": "struct Description",
          "name": "description",
          "type": "tuple"
        }
      ],
      "name": "submitApplication",
      "outputs": [
        {
          "internalType": "bool",
          "name": "",
          "type": "bool"
        }
      ],
      "stateMutability": "nonpayable",
      "type": "function"
    },
    {
      "inputs": [
        {
          "internalType": "address",
          "name": "newOwner",
          "type": "address"
        }
      ],
      "name": "transferOwnership",
      "outputs": [
        {
          "internalType": "bool",
          "name": "",
          "type": "bool"
        }
      ],
      "stateMutability": "nonpayable",
      "type": "function"
    },
    {
      "inputs": [
        {
          "internalType": "address",
          "name": "operator",
          "type": "address"
        }
      ],
      "name": "validator",
      "outputs": [
        {
          "internalType": "bytes32",
          "name": "consPubKey",
          "type": "bytes32"
        },
        {
          "components": [
            {
              "internalType": "string",
              "name": "moniker",
              "type": "string"
            },
            {
              "internalType": "string",
              "name": "identity",
              "type": "string"
            },
            {
              "internalType": "string",
              "name": "website",
              "type": "string"
            },
            {
              "internalType": "string",
              "name": "securityContact",
              "type": "string"
            },
            {
              "internalType": "string",
              "name": "details",
              "type": "string"
            }
          ],
          "internalType": "struct Description",
          "name": "description",
          "type": "tuple"
        }
      ],
      "stateMutability": "view",
      "type": "function"
    },
    {
      "inputs": [],
      "name": "validators",
      "outputs": [
        {
          "internalType": "address[]",
          "name": "",
          "type": "address[]"
        }
      ],
      "stateMutability": "view",
      "type": "function"
    },
    {
      "inputs": [
        {
          "internalType": "uint8",
          "name": "privilegeId",
          "type": "uint8"
        }
      ],
      "name": "validatorsByPrivilege",
      "outputs": [
        {
          "internalType": "address[]",
          "name": "operators",
          "type": "address[]"
        }
      ],
      "stateMutability": "view",
      "type": "function"
    }
  ],
  "bytecode": "0x608060405234801561001057600080fd5b5061118e806100206000396000f3fe608060405234801561001057600080fd5b506004361061010b5760003560e01c80637ce5e82f116100a2578063c105ea2b11610071578063c105ea2b14610216578063ca1e78191461021e578063d66d9e1914610226578063e3ae4d0a1461022e578063f2fde38b1461024157600080fd5b80637ce5e82f146101c85780638bd2cc11146101d05780638da5cb5b146101e357806396c551751461020357600080fd5b8063617177f5116100de578063617177f51461017a578063644bb08b1461019a5780636a050f5f146101ad57806379ba5097146101c057600080fd5b8063223b3b7a146101105780632dea97ba1461013a578063335762751461014f57806354023a4e14610172575b600080fd5b61012361011e3660046108ed565b610254565b60405161013192919061095a565b60405180910390f35b610142610306565b60405161013191906109fc565b61016261015d366004610a84565b61037b565b6040519015158152602001610131565b6101626103f8565b61018d610188366004610b0a565b610466565b6040516101319190610b27565b6101626101a8366004610a84565b6104dd565b6101626101bb366004610b74565b61050f565b610162610589565b61018d6105d3565b6101236101de3660046108ed565b610643565b6101eb6106ab565b6040516001600160a01b039091168152602001610131565b6101626102113660046108ed565b610717565b6101eb61078d565b61018d6107d5565b61016261081d565b61016261023c3660046108ed565b610867565b61016261024f3660046108ed565b61089e565b60006102886040518060a0016040528060608152602001606081526020016060815260200160608152602001606081525090565b60405163111d9dbd60e11b81526001600160a01b03841660048201526011611edf60921b019063223b3b7a906024015b600060405180830381865afa1580156102d5573d6000803e3d6000fd5b505050506040513d6000823e601f3d908101601f191682016040526102fd9190810190610cb9565b91509150915091565b60606011611edf60921b016001600160a01b0316632dea97ba6040518163ffffffff1660e01b8152600401600060405180830381865afa15801561034e573d6000803e3d6000fd5b505050506040513d6000823e601f3d908101601f191682016040526103769190810190610de6565b905090565b604051633357627560e01b81526000906011611edf60921b01906333576275906103ad90879087908790600401610ee3565b6020604051808303816000875af11580156103cc573d6000803e3d6000fd5b505050506040513d601f19601f820116820180604052508101906103f09190610f3d565b949350505050565b60006011611edf60921b016001600160a01b03166354023a4e6040518163ffffffff1660e01b81526004016020604051808303816000875af1158015610442573d6000803e3d6000fd5b505050506040513d601f19601f820116820180604052508101906103769190610f3d565b60405163617177f560e01b815260ff821660048201526060906011611edf60921b019063617177f590602401600060405180830381865afa1580156104af573d6000803e3d6000fd5b505050506040513d6000823e601f3d908101601f191682016040526104d79190810190610f5f565b92915050565b60405163644bb08b60e01b81526000906011611edf60921b019063644bb08b906103ad90879087908790600401610ee3565b604051636a050f5f60e01b81526000906011611edf60921b0190636a050f5f9061053f908690869060040161106f565b6020604051808303816000875af115801561055e573d6000803e3d6000fd5b505050506040513d601f19601f820116820180604052508101906105829190610f3d565b9392505050565b60006011611edf60921b016001600160a01b03166379ba50976040518163ffffffff1660e01b81526004016020604051808303816000875af1158015610442573d6000803e3d6000fd5b60606011611edf60921b016001600160a01b0316637ce5e82f6040518163ffffffff1660e01b8152600401600060405180830381865afa15801561061b573d6000803e3d6000fd5b505050506040513d6000823e601f3d908101601f191682016040526103769190810190610f5f565b60006106776040518060a0016040528060608152602001606081526020016060815260200160608152602001606081525090565b604051638bd2cc1160e01b81526001600160a01b03841660048201526011611edf60921b0190638bd2cc11906024016102b8565b60006011611edf60921b016001600160a01b0316638da5cb5b6040518163ffffffff1660e01b8152600401602060405180830381865afa1580156106f3573d6000803e3d6000fd5b505050506040513d601f19601f82011682018060405250810190610376919061113b565b6040516396c5517560e01b81526001600160a01b03821660048201526000906011611edf60921b01906396c55175906024015b6020604051808303816000875af1158015610769573d6000803e3d6000fd5b505050506040513d601f19601f820116820180604052508101906104d79190610f3d565b60006011611edf60921b016001600160a01b031663c105ea2b6040518163ffffffff1660e01b8152600401602060405180830381865afa1580156106f3573d6000803e3d6000fd5b60606011611edf60921b016001600160a01b031663ca1e78196040518163ffffffff1660e01b8152600401600060405180830381865afa15801561061b573d6000803e3d6000fd5b60006011611edf60921b016001600160a01b031663d66d9e196040518163ffffffff1660e01b81526004016020604051808303816000875af1158015610442573d6000803e3d6000fd5b6040516371d7268560e11b81526001600160a01b03821660048201526000906011611edf60921b019063e3ae4d0a9060240161074a565b60405163f2fde38b60e01b81526001600160a01b03821660048201526000906011611edf60921b019063f2fde38b9060240161074a565b6001600160a01b03811681146108ea57600080fd5b50565b6000602082840312156108ff57600080fd5b8135610582816108d5565b60005b8381101561092557818101518382015260200161090d565b50506000910152565b6000815180845261094681602086016020860161090a565b601f01601f19169290920160200192915050565b828152604060208201526000825160a0604084015261097c60e084018261092e565b90506020840151603f198085840301606086015261099a838361092e565b925060408601519150808584030160808601526109b7838361092e565b925060608601519150808584030160a08601526109d4838361092e565b925060808601519150808584030160c0860152506109f2828261092e565b9695505050505050565b600060208083018184528085518083526040925060408601915060408160051b87010184880160005b83811015610a6757888303603f190185528151805160ff168452870151878401879052610a548785018261092e565b9588019593505090860190600101610a25565b509098975050505050505050565b60ff811681146108ea57600080fd5b600080600060408486031215610a9957600080fd5b833567ffffffffffffffff80821115610ab157600080fd5b818601915086601f830112610ac557600080fd5b813581811115610ad457600080fd5b8760208260051b8501011115610ae957600080fd5b60209283019550935050840135610aff81610a75565b809150509250925092565b600060208284031215610b1c57600080fd5b813561058281610a75565b6020808252825182820181905260009190848201906040850190845b81811015610b685783516001600160a01b031683529284019291840191600101610b43565b50909695505050505050565b60008060408385031215610b8757600080fd5b82359150602083013567ffffffffffffffff811115610ba557600080fd5b830160a08186031215610bb757600080fd5b809150509250929050565b634e487b7160e01b600052604160045260246000fd5b60405160a0810167ffffffffffffffff81118282101715610bfb57610bfb610bc2565b60405290565b6040805190810167ffffffffffffffff81118282101715610bfb57610bfb610bc2565b604051601f8201601f1916810167ffffffffffffffff81118282101715610c4d57610c4d610bc2565b604052919050565b600082601f830112610c6657600080fd5b815167ffffffffffffffff811115610c8057610c80610bc2565b610c93601f8201601f1916602001610c24565b818152846020838601011115610ca857600080fd5b6103f082602083016020870161090a565b60008060408385031215610ccc57600080fd5b82519150602083015167ffffffffffffffff80821115610ceb57600080fd5b9084019060a08287031215610cff57600080fd5b610d07610bd8565b825182811115610d1657600080fd5b610d2288828601610c55565b825250602083015182811115610d3757600080fd5b610d4388828601610c55565b602083015250604083015182811115610d5b57600080fd5b610d6788828601610c55565b604083015250606083015182811115610d7f57600080fd5b610d8b88828601610c55565b606083015250608083015182811115610da357600080fd5b610daf88828601610c55565b6080830152508093505050509250929050565b600067ffffffffffffffff821115610ddc57610ddc610bc2565b5060051b60200190565b60006020808385031215610df957600080fd5b825167ffffffffffffffff80821115610e1157600080fd5b818501915085601f830112610e2557600080fd5b8151610e38610e3382610dc2565b610c24565b81815260059190911b83018401908481019088831115610e5757600080fd5b8585015b83811015610ed657805185811115610e735760008081fd5b86016040818c03601f1901811315610e8b5760008081fd5b610e93610c01565b89830151610ea081610a75565b8152908201519087821115610eb55760008081fd5b610ec38d8b84860101610c55565b818b015285525050918601918601610e5b565b5098975050505050505050565b6040808252810183905260008460608301825b86811015610f26578235610f09816108d5565b6001600160a01b0316825260209283019290910190600101610ef6565b50809250505060ff83166020830152949350505050565b600060208284031215610f4f57600080fd5b8151801515811461058257600080fd5b60006020808385031215610f7257600080fd5b825167ffffffffffffffff811115610f8957600080fd5b8301601f81018513610f9a57600080fd5b8051610fa8610e3382610dc2565b81815260059190911b82018301908381019087831115610fc757600080fd5b928401925b82841015610fee578351610fdf816108d5565b82529284019290840190610fcc565b979650505050505050565b6000808335601e1984360301811261101057600080fd5b830160208101925035905067ffffffffffffffff81111561103057600080fd5b80360382131561103f57600080fd5b9250929050565b81835281816020850137506000828201602090810191909152601f909101601f19169091010190565b8281526040602082015260006110858384610ff9565b60a0604085015261109a60e085018284611046565b9150506110aa6020850185610ff9565b603f19808685030160608701526110c2848385611046565b93506110d16040880188610ff9565b93509150808685030160808701526110ea848484611046565b93506110f96060880188610ff9565b93509150808685030160a0870152611112848484611046565b93506111216080880188610ff9565b93509150808685030160c087015250610fee838383611046565b60006020828403121561114d57600080fd5b8151610582816108d556fea2646970667358221220ace621883eac64e4d0b90d09c45514e83e59f61ca5dfa6051abb54e95a8efce164736f6c63430008180033",
  "linkReferences": {},
  "deployedLinkReferences": {}
}