{
  "contracts/ValidatorPoolCaller.sol": {
    "ValidatorPoolCaller": {
      "abi": [
        {
          "anonymous": false,
          "inputs": [
            {
              "indexed": true,
              "internalType": "address",
              "name": "operator",
              "type": "address"
            }
          ],
          "name": "ApplicationApproved",
          "type": "event"
        },
        {
          "anonymous": false,
          "inputs": [
            {
              "indexed": true,
              "internalType": "address",
              "name": "operator",
              "type": "address"
            },
            {
              "indexed": true,
              "internalType": "bytes32",
              "name": "consPubKey",
              "type": "bytes32"
            },
            {
              "components": [
                {
                  "internalType": "string",
                  "name": "moniker",
                  "type": "string"
                },
                {
                  "internalType": "string",
                  "name": "identity",
                  "type": "string"
                },
                {
                  "internalType": "string",
                  "name": "website",
                  "type": "string"
                },
                {
                  "internalType": "string",
                  "name": "securityContact",
                  "type": "string"
                },
                {
                  "internalType": "string",
                  "name": "details",
                  "type": "string"
                }
              ],
              "indexed": false,
              "internalType": "struct Description",
              "name": "description",
              "type": "tuple"
            }
          ],
          "name": "ApplicationSubmitted",
          "type": "event"
        },
        {
          "anonymous": false,
          "inputs": [],
          "name": "ApplicationsCleaned",
          "type": "event"
        },
        {
          "anonymous": false,
          "inputs": [
            {
              "indexed": true,
              "internalType": "address",
              "name": "previousOwner",
              "type": "address"
            },
            {
              "indexed": true,
              "internalType": "address",
              "name": "newOwner",
              "type": "address"
            }
          ],
          "name": "OwnershipTransferStarted",
          "type": "event"
        },
        {
          "anonymous": false,
          "inputs": [
            {
              "indexed": true,
              "internalType": "address",
              "name": "previousOwner",
              "type": "address"
            },
            {
              "indexed": true,
              "internalType": "address",
              "name": "newOwner",
              "type": "address"
            }
          ],
          "name": "OwnershipTransferred",
          "type": "event"
        },
        {
          "anonymous": false,
          "inputs": [
            {
              "indexed": true,
              "internalType": "address",
              "name": "operator",
              "type": "address"
            },
            {
              "indexed": true,
              "internalType": "uint8",
              "name": "privilegeId",
              "type": "uint8"
            }
          ],
          "name": "PrivilegeAdded",
          "type": "event"
        },
        {
          "anonymous": false,
          "inputs": [
            {
              "indexed": true,
              "internalType": "address",
              "name": "operator",
              "type": "address"
            },
            {
              "indexed": true,
              "internalType": "uint8",
              "name": "privilegeId",
              "type": "uint8"
            }
          ],
          "name": "PrivilegeRemoved",
          "type": "event"
        },
        {
          "anonymous": false,
          "inputs": [
            {
              "indexed": true,
              "internalType": "address",
              "name": "operator",
              "type": "address"
            }
          ],
          "name": "ValidatorJoined",
          "type": "event"
        },
        {
          "anonymous": false,
          "inputs": [
            {
              "indexed": true,
              "internalType": "address",
              "name": "operator",
              "type": "address"
            }
          ],
          "name": "ValidatorKicked",
          "type": "event"
        },
        {
          "anonymous": false,
          "inputs": [
            {
              "indexed": true,
              "internalType": "address",
              "name": "operator",
              "type": "address"
            }
          ],
          "name": "ValidatorLeft",
          "type": "event"
        },
        {
          "inputs": [],
          "name": "acceptOwnership",
          "outputs": [
            {
              "internalType": "bool",
              "name": "",
              "type": "bool"
            }
          ],
          "stateMutability": "nonpayable",
          "type": "function"
        },
        {
          "inputs": [
            {
              "internalType": "address[]",
              "name": "operators",
              "type": "address[]"
            },
            {
              "internalType": "uint8",
              "name": "privilegeId",
              "type": "uint8"
            }
          ],
          "name": "addPrivilege",
          "outputs": [
            {
              "internalType": "bool",
              "name": "",
              "type": "bool"
            }
          ],
          "stateMutability": "nonpayable",
          "type": "function"
        },
        {
          "inputs": [
            {
              "internalType": "address",
              "name": "operator",
              "type": "address"
            }
          ],
          "name": "application",
          "outputs": [
            {
              "internalType": "bytes32",
              "name": "consPubKey",
              "type": "bytes32"
            },
            {
              "components": [
                {
                  "internalType": "string",
                  "name": "moniker",
                  "type": "string"
                },
                {
                  "internalType": "string",
                  "name": "identity",
                  "type": "string"
                },
                {
                  "internalType": "string",
                  "name": "website",
                  "type": "string"
                },
                {
                  "internalType": "string",
                  "name": "securityContact",
                  "type": "string"
                },
                {
                  "internalType": "string",
                  "name": "details",
                  "type": "string"
                }
              ],
              "internalType": "struct Description",
              "name": "description",
              "type": "tuple"
            }
          ],
          "stateMutability": "view",
          "type": "function"
        },
        {
          "inputs": [],
          "name": "applications",
          "outputs": [
            {
              "internalType": "address[]",
              "name": "",
              "type": "address[]"
            }
          ],
          "stateMutability": "view",
          "type": "function"
        },
        {
          "inputs": [
            {
              "internalType": "address",
              "name": "operator",
              "type": "address"
            }
          ],
          "name": "approveApplication",
          "outputs": [
            {
              "internalType": "bool",
              "name": "",
              "type": "bool"
            }
          ],
          "stateMutability": "nonpayable",
          "type": "function"
        },
        {
          "inputs": [],
          "name": "candidateOwner",
          "outputs": [
            {
              "internalType": "address",
              "name": "",
              "type": "address"
            }
          ],
          "stateMutability": "view",
          "type": "function"
        },
        {
          "inputs": [],
          "name": "cleanupApplications",
          "outputs": [
            {
              "internalType": "bool",
              "name": "",
              "type": "bool"
            }
          ],
          "stateMutability": "nonpayable",
          "type": "function"
        },
        {
          "inputs": [
            {
              "internalType": "address",
              "name": "operator",
              "type": "address"
            }
          ],
          "name": "kick",
          "outputs": [
            {
              "internalType": "bool",
              "name": "",
              "type": "bool"
            }
          ],
          "stateMutability": "nonpayable",
          "type": "function"
        },
        {
          "inputs": [],
          "name": "leave",
          "outputs": [
            {
              "internalType": "bool",
              "name": "",
              "type": "bool"
            }
          ],
          "stateMutability": "nonpayable",
          "type": "function"
        },
        {
          "inputs": [],
          "name": "owner",
          "outputs": [
            {
              "internalType": "address",
              "name": "",
              "type": "address"
            }
          ],
          "stateMutability": "view",
          "type": "function"
        },
        {
          "inputs": [],
          "name": "privileges",
          "outputs": [
            {
              "components": [
                {
                  "internalType": "uint8",
                  "name": "id",
                  "type": "uint8"
                },
                {
                  "internalType": "string",
                  "name": "name",
                  "type": "string"
                }
              ],
              "internalType": "struct Privilege[]",
              "name": "",
              "type": "tuple[]"
            }
          ],
          "stateMutability": "view",
          "type": "function"
        },
        {
          "inputs": [
            {
              "internalType": "address[]",
              "name": "operators",
              "type": "address[]"
            },
            {
              "internalType": "uint8",
              "name": "privilegeId",
              "type": "uint8"
            }
          ],
          "name": "removePrivilege",
          "outputs": [
            {
              "internalType": "bool",
              "name": "",
              "type": "bool"
            }
          ],
          "stateMutability": "nonpayable",
          "type": "function"
        },
        {
          "inputs": [
            {
              "internalType": "bytes32",
              "name": "consPubKey",
              "type": "bytes32"
            },
            {
              "components": [
                {
                  "internalType": "string",
                  "name": "moniker",
                  "type": "string"
                },
                {
                  "internalType": "string",
                  "name": "identity",
                  "type": "string"
                },
                {
                  "internalType": "string",
                  "name": "website",
                  "type": "string"
                },
                {
                  "internalType": "string",
                  "name": "securityContact",
                  "type": "string"
                },
                {
                  "internalType": "string",
                  "name": "details",
                  "type": "string"
                }
              ],
              "internalType": "struct Description",
              "name": "description",
              "type": "tuple"
            }
          ],
          "name": "submitApplication",
          "outputs": [
            {
              "internalType": "bool",
              "name": "",
              "type": "bool"
            }
          ],
          "stateMutability": "nonpayable",
          "type": "function"
        },
        {
          "inputs": [
            {
              "internalType": "address",
              "name": "newOwner",
              "type": "address"
            }
          ],
          "name": "transferOwnership",
          "outputs": [
            {
              "internalType": "bool",
              "name": "",
              "type": "bool"
            }
          ],
          "stateMutability": "nonpayable",
          "type": "function"
        },
        {
          "inputs": [
            {
              "internalType": "address",
              "name": "operator",
              "type": "address"
            }
          ],
          "name": "validator",
          "outputs": [
            {
              "internalType": "bytes32",
              "name": "consPubKey",
              "type": "bytes32"
            },
            {
              "components": [
                {
                  "internalType": "string",
                  "name": "moniker",
                  "type": "string"
                },
                {
                  "internalType": "string",
                  "name": "identity",
                  "type": "string"
                },
                {
                  "internalType": "string",
                  "name": "website",
                  "type": "string"
                },
                {
                  "internalType": "string",
                  "name": "securityContact",
                  "type": "string"
                },
                {
                  "internalType": "string",
                  "name": "details",
                  "type": "string"
                }
              ],
              "internalType": "struct Description",
              "name": "description",
              "type": "tuple"
            }
          ],
          "stateMutability": "view",
          "type": "function"
        },
        {
          "inputs": [],
          "name": "validators",
          "outputs": [
            {
              "internalType": "address[]",
              "name": "",
              "type": "address[]"
            }
          ],
          "stateMutability": "view",
          "type": "function"
        },
        {
          "inputs": [
            {
              "internalType": "uint8",
              "name": "privilegeId",
              "type": "uint8"
            }
          ],
          "name": "validatorsByPrivilege",
          "outputs": [
            {
              "internalType": "address[]",
              "name": "operators",
              "type": "address[]"
            }
          ],
          "stateMutability": "view",
          "type": "function"
        }
      ],
      "evm": {
        "bytecode": {
          "linkReferences": {},
          "object": "608060405234801561001057600080fd5b5061118e806100206000396000f3fe608060405234801561001057600080fd5b506004361061010b5760003560e01c80637ce5e82f116100a2578063c105ea2b11610071578063c105ea2b14610216578063ca1e78191461021e578063d66d9e1914610226578063e3ae4d0a1461022e578063f2fde38b1461024157600080fd5b80637ce5e82f146101c85780638bd2cc11146101d05780638da5cb5b146101e357806396c551751461020357600080fd5b8063617177f5116100de578063617177f51461017a578063644bb08b1461019a5780636a050f5f146101ad57806379ba5097146101c057600080fd5b8063223b3b7a146101105780632dea97ba1461013a578063335762751461014f57806354023a4e14610172575b600080fd5b61012361011e3660046108ed565b610254565b60405161013192919061095a565b60405180910390f35b610142610306565b60405161013191906109fc565b61016261015d366004610a84565b61037b565b6040519015158152602001610131565b6101626103f8565b61018d610188366004610b0a565b610466565b6040516101319190610b27565b6101626101a8366004610a84565b6104dd565b6101626101bb366004610b74565b61050f565b610162610589565b61018d6105d3565b6101236101de3660046108ed565b610643565b6101eb6106ab565b6040516001600160a01b039091168152602001610131565b6101626102113660046108ed565b610717565b6101eb61078d565b61018d6107d5565b61016261081d565b61016261023c3660046108ed565b610867565b61016261024f3660046108ed565b61089e565b60006102886040518060a0016040528060608152602001606081526020016060815260200160608152602001606081525090565b60405163111d9dbd60e11b81526001600160a01b03841660048201526011611edf60921b019063223b3b7a906024015b600060405180830381865afa1580156102d5573d6000803e3d6000fd5b505050506040513d6000823e601f3d908101601f191682016040526102fd9190810190610cb9565b91509150915091565b60606011611edf60921b016001600160a01b0316632dea97ba6040518163ffffffff1660e01b8152600401600060405180830381865afa15801561034e573d6000803e3d6000fd5b505050506040513d6000823e601f3d908101601f191682016040526103769190810190610de6565b905090565b604051633357627560e01b81526000906011611edf60921b01906333576275906103ad90879087908790600401610ee3565b6020604051808303816000875af11580156103cc573d6000803e3d6000fd5b505050506040513d601f19601f820116820180604052508101906103f09190610f3d565b949350505050565b60006011611edf60921b016001600160a01b03166354023a4e6040518163ffffffff1660e01b81526004016020604051808303816000875af1158015610442573d6000803e3d6000fd5b505050506040513d601f19601f820116820180604052508101906103769190610f3d565b60405163617177f560e01b815260ff821660048201526060906011611edf60921b019063617177f590602401600060405180830381865afa1580156104af573d6000803e3d6000fd5b505050506040513d6000823e601f3d908101601f191682016040526104d79190810190610f5f565b92915050565b60405163644bb08b60e01b81526000906011611edf60921b019063644bb08b906103ad90879087908790600401610ee3565b604051636a050f5f60e01b81526000906011611edf60921b0190636a050f5f9061053f908690869060040161106f565b6020604051808303816000875af115801561055e573d6000803e3d6000fd5b505050506040513d601f19601f820116820180604052508101906105829190610f3d565b9392505050565b60006011611edf60921b016001600160a01b03166379ba50976040518163ffffffff1660e01b81526004016020604051808303816000875af1158015610442573d6000803e3d6000fd5b60606011611edf60921b016001600160a01b0316637ce5e82f6040518163ffffffff1660e01b8152600401600060405180830381865afa15801561061b573d6000803e3d6000fd5b505050506040513d6000823e601f3d908101601f191682016040526103769190810190610f5f565b60006106776040518060a0016040528060608152602001606081526020016060815260200160608152602001606081525090565b604051638bd2cc1160e01b81526001600160a01b03841660048201526011611edf60921b0190638bd2cc11906024016102b8565b60006011611edf60921b016001600160a01b0316638da5cb5b6040518163ffffffff1660e01b8152600401602060405180830381865afa1580156106f3573d6000803e3d6000fd5b505050506040513d601f19601f82011682018060405250810190610376919061113b565b6040516396c5517560e01b81526001600160a01b03821660048201526000906011611edf60921b01906396c55175906024015b6020604051808303816000875af1158015610769573d6000803e3d6000fd5b505050506040513d601f19601f820116820180604052508101906104d79190610f3d565b60006011611edf60921b016001600160a01b031663c105ea2b6040518163ffffffff1660e01b8152600401602060405180830381865afa1580156106f3573d6000803e3d6000fd5b60606011611edf60921b016001600160a01b031663ca1e78196040518163ffffffff1660e01b8152600401600060405180830381865afa15801561061b573d6000803e3d6000fd5b60006011611edf60921b016001600160a01b031663d66d9e196040518163ffffffff1660e01b81526004016020604051808303816000875af1158015610442573d6000803e3d6000fd5b6040516371d7268560e11b81526001600160a01b03821660048201526000906011611edf60921b019063e3ae4d0a9060240161074a565b60405163f2fde38b60e01b81526001600160a01b03821660048201526000906011611edf60921b019063f2fde38b9060240161074a565b6001600160a01b03811681146108ea57600080fd5b50565b6000602082840312156108ff57600080fd5b8135610582816108d5565b60005b8381101561092557818101518382015260200161090d565b50506000910152565b6000815180845261094681602086016020860161090a565b601f01601f19169290920160200192915050565b828152604060208201526000825160a0604084015261097c60e084018261092e565b90506020840151603f198085840301606086015261099a838361092e565b925060408601519150808584030160808601526109b7838361092e565b925060608601519150808584030160a08601526109d4838361092e565b925060808601519150808584030160c0860152506109f2828261092e565b9695505050505050565b600060208083018184528085518083526040925060408601915060408160051b87010184880160005b83811015610a6757888303603f190185528151805160ff168452870151878401879052610a548785018261092e565b9588019593505090860190600101610a25565b509098975050505050505050565b60ff811681146108ea57600080fd5b600080600060408486031215610a9957600080fd5b833567ffffffffffffffff80821115610ab157600080fd5b818601915086601f830112610ac557600080fd5b813581811115610ad457600080fd5b8760208260051b8501011115610ae957600080fd5b60209283019550935050840135610aff81610a75565b809150509250925092565b600060208284031215610b1c57600080fd5b813561058281610a75565b6020808252825182820181905260009190848201906040850190845b81811015610b685783516001600160a01b031683529284019291840191600101610b43565b50909695505050505050565b60008060408385031215610b8757600080fd5b82359150602083013567ffffffffffffffff811115610ba557600080fd5b830160a08186031215610bb757600080fd5b809150509250929050565b634e487b7160e01b600052604160045260246000fd5b60405160a0810167ffffffffffffffff81118282101715610bfb57610bfb610bc2565b60405290565b6040805190810167ffffffffffffffff81118282101715610bfb57610bfb610bc2565b604051601f8201601f1916810167ffffffffffffffff81118282101715610c4d57610c4d610bc2565b604052919050565b600082601f830112610c6657600080fd5b815167ffffffffffffffff811115610c8057610c80610bc2565b610c93601f8201601f1916602001610c24565b818152846020838601011115610ca857600080fd5b6103f082602083016020870161090a565b60008060408385031215610ccc57600080fd5b82519150602083015167ffffffffffffffff80821115610ceb57600080fd5b9084019060a08287031215610cff57600080fd5b610d07610bd8565b825182811115610d1657600080fd5b610d2288828601610c55565b825250602083015182811115610d3757600080fd5b610d4388828601610c55565b602083015250604083015182811115610d5b57600080fd5b610d6788828601610c55565b604083015250606083015182811115610d7f57600080fd5b610d8b88828601610c55565b606083015250608083015182811115610da357600080fd5b610daf88828601610c55565b6080830152508093505050509250929050565b600067ffffffffffffffff821115610ddc57610ddc610bc2565b5060051b60200190565b60006020808385031215610df957600080fd5b825167ffffffffffffffff80821115610e1157600080fd5b818501915085601f830112610e2557600080fd5b8151610e38610e3382610dc2565b610c24565b81815260059190911b83018401908481019088831115610e5757600080fd5b8585015b83811015610ed657805185811115610e735760008081fd5b86016040818c03601f1901811315610e8b5760008081fd5b610e93610c01565b89830151610ea081610a75565b8152908201519087821115610eb55760008081fd5b610ec38d8b84860101610c55565b818b015285525050918601918601610e5b565b5098975050505050505050565b6040808252810183905260008460608301825b86811015610f26578235610f09816108d5565b6001600160a01b0316825260209283019290910190600101610ef6565b50809250505060ff83166020830152949350505050565b600060208284031215610f4f57600080fd5b8151801515811461058257600080fd5b60006020808385031215610f7257600080fd5b825167ffffffffffffffff811115610f8957600080fd5b8301601f81018513610f9a57600080fd5b8051610fa8610e3382610dc2565b81815260059190911b82018301908381019087831115610fc757600080fd5b928401925b82841015610fee578351610fdf816108d5565b82529284019290840190610fcc565b979650505050505050565b6000808335601e1984360301811261101057600080fd5b830160208101925035905067ffffffffffffffff81111561103057600080fd5b80360382131561103f57600080fd5b9250929050565b81835281816020850137506000828201602090810191909152601f909101601f19169091010190565b8281526040602082015260006110858384610ff9565b60a0604085015261109a60e085018284611046565b9150506110aa6020850185610ff9565b603f19808685030160608701526110c2848385611046565b93506110d16040880188610ff9565b93509150808685030160808701526110ea848484611046565b93506110f96060880188610ff9565b93509150808685030160a0870152611112848484611046565b93506111216080880188610ff9565b93509150808685030160c087015250610fee838383611046565b60006020828403121561114d57600080fd5b8151610582816108d556fea2646970667358221220ace621883eac64e4d0b90d09c45514e83e59f61ca5dfa6051abb54e95a8efce164736f6c63430008180033",
          "opcodes": "PUSH1 0x80 PUSH1 0x40 MSTORE CALLVALUE DUP1 ISZERO PUSH2 0x10 JUMPI PUSH1 0x0 DUP1 REVERT JUMPDEST POP PUSH2 0x118E DUP1 PUSH2 0x20 PUSH1 0x0 CODECOPY PUSH1 0x0 RETURN INVALID PUSH1 0x80 PUSH1 0x40 MSTORE CALLVALUE DUP1 ISZERO PUSH2 0x10 JUMPI PUSH1 0x0 DUP1 REVERT JUMPDEST POP PUSH1 0x4 CALLDATASIZE LT PUSH2 0x10B JUMPI PUSH1 0x0 CALLDATALOAD PUSH1 0xE0 SHR DUP1 PUSH4 0x7CE5E82F GT PUSH2 0xA2 JUMPI DUP1 PUSH4 0xC105EA2B GT PUSH2 0x71 JUMPI DUP1 PUSH4 0xC105EA2B EQ PUSH2 0x216 JUMPI DUP1 PUSH4 0xCA1E7819 EQ PUSH2 0x21E JUMPI DUP1 PUSH4 0xD66D9E19 EQ PUSH2 0x226 JUMPI DUP1 PUSH4 0xE3AE4D0A EQ PUSH2 0x22E JUMPI DUP1 PUSH4 0xF2FDE38B EQ PUSH2 0x241 JUMPI PUSH1 0x0 DUP1 REVERT JUMPDEST DUP1 PUSH4 0x7CE5E82F EQ PUSH2 0x1C8 JUMPI DUP1 PUSH4 0x8BD2CC11 EQ PUSH2 0x1D0 JUMPI DUP1 PUSH4 0x8DA5CB5B EQ PUSH2 0x1E3 JUMPI DUP1 PUSH4 0x96C55175 EQ PUSH2 0x203 JUMPI PUSH1 0x0 DUP1 REVERT JUMPDEST DUP1 PUSH4 0x617177F5 GT PUSH2 0xDE JUMPI DUP1 PUSH4 0x617177F5 EQ PUSH2 0x17A JUMPI DUP1 PUSH4 0x644BB08B EQ PUSH2 0x19A JUMPI DUP1 PUSH4 0x6A050F5F EQ PUSH2 0x1AD JUMPI DUP1 PUSH4 0x79BA5097 EQ PUSH2 0x1C0 JUMPI PUSH1 0x0 DUP1 REVERT JUMPDEST DUP1 PUSH4 0x223B3B7A EQ PUSH2 0x110 JUMPI DUP1 PUSH4 0x2DEA97BA EQ PUSH2 0x13A JUMPI DUP1 PUSH4 0x33576275 EQ PUSH2 0x14F JUMPI DUP1 PUSH4 0x54023A4E EQ PUSH2 0x172 JUMPI JUMPDEST PUSH1 0x0 DUP1 REVERT JUMPDEST PUSH2 0x123 PUSH2 0x11E CALLDATASIZE PUSH1 0x4 PUSH2 0x8ED JUMP JUMPDEST PUSH2 0x254 JUMP JUMPDEST PUSH1 0x40 MLOAD PUSH2 0x131 SWAP3 SWAP2 SWAP1 PUSH2 0x95A JUMP JUMPDEST PUSH1 0x40 MLOAD DUP1 SWAP2 SUB SWAP1 RETURN JUMPDEST PUSH2 0x142 PUSH2 0x306 JUMP JUMPDEST PUSH1 0x40 MLOAD PUSH2 0x131 SWAP2 SWAP1 PUSH2 0x9FC JUMP JUMPDEST PUSH2 0x162 PUSH2 0x15D CALLDATASIZE PUSH1 0x4 PUSH2 0xA84 JUMP JUMPDEST PUSH2 0x37B JUMP JUMPDEST PUSH1 0x40 MLOAD SWAP1 ISZERO ISZERO DUP2 MSTORE PUSH1 0x20 ADD PUSH2 0x131 JUMP JUMPDEST PUSH2 0x162 PUSH2 0x3F8 JUMP JUMPDEST PUSH2 0x18D PUSH2 0x188 CALLDATASIZE PUSH1 0x4 PUSH2 0xB0A JUMP JUMPDEST PUSH2 0x466 JUMP JUMPDEST PUSH1 0x40 MLOAD PUSH2 0x131 SWAP2 SWAP1 PUSH2 0xB27 JUMP JUMPDEST PUSH2 0x162 PUSH2 0x1A8 CALLDATASIZE PUSH1 0x4 PUSH2 0xA84 JUMP JUMPDEST PUSH2 0x4DD JUMP JUMPDEST PUSH2 0x162 PUSH2 0x1BB CALLDATASIZE PUSH1 0x4 PUSH2 0xB74 JUMP JUMPDEST PUSH2 0x50F JUMP JUMPDEST PUSH2 0x162 PUSH2 0x589 JUMP JUMPDEST PUSH2 0x18D PUSH2 0x5D3 JUMP JUMPDEST PUSH2 0x123 PUSH2 0x1DE CALLDATASIZE PUSH1 0x4 PUSH2 0x8ED JUMP JUMPDEST PUSH2 0x643 JUMP JUMPDEST PUSH2 0x1EB PUSH2 0x6AB JUMP JUMPDEST PUSH1 0x40 MLOAD PUSH1 0x1 PUSH1 0x1 PUSH1 0xA0 SHL SUB SWAP1 SWAP2 AND DUP2 MSTORE PUSH1 0x20 ADD PUSH2 0x131 JUMP JUMPDEST PUSH2 0x162 PUSH2 0x211 CALLDATASIZE PUSH1 0x4 PUSH2 0x8ED JUMP JUMPDEST PUSH2 0x717 JUMP JUMPDEST PUSH2 0x1EB PUSH2 0x78D JUMP JUMPDEST PUSH2 0x18D PUSH2 0x7D5 JUMP JUMPDEST PUSH2 0x162 PUSH2 0x81D JUMP JUMPDEST PUSH2 0x162 PUSH2 0x23C CALLDATASIZE PUSH1 0x4 PUSH2 0x8ED JUMP JUMPDEST PUSH2 0x867 JUMP JUMPDEST PUSH2 0x162 PUSH2 0x24F CALLDATASIZE PUSH1 0x4 PUSH2 0x8ED JUMP JUMPDEST PUSH2 0x89E JUMP JUMPDEST PUSH1 0x0 PUSH2 0x288 PUSH1 0x40 MLOAD DUP1 PUSH1 0xA0 ADD PUSH1 0x40 MSTORE DUP1 PUSH1 0x60 DUP2 MSTORE PUSH1 0x20 ADD PUSH1 0x60 DUP2 MSTORE PUSH1 0x20 ADD PUSH1 0x60 DUP2 MSTORE PUSH1 0x20 ADD PUSH1 0x60 DUP2 MSTORE PUSH1 0x20 ADD PUSH1 0x60 DUP2 MSTORE POP SWAP1 JUMP JUMPDEST PUSH1 0x40 MLOAD PUSH4 0x111D9DBD PUSH1 0xE1 SHL DUP2 MSTORE PUSH1 0x1 PUSH1 0x1 PUSH1 0xA0 SHL SUB DUP5 AND PUSH1 0x4 DUP3 ADD MSTORE PUSH1 0x11 PUSH2 0x1EDF PUSH1 0x92 SHL ADD SWAP1 PUSH4 0x223B3B7A SWAP1 PUSH1 0x24 ADD JUMPDEST PUSH1 0x0 PUSH1 0x40 MLOAD DUP1 DUP4 SUB DUP2 DUP7 GAS STATICCALL ISZERO DUP1 ISZERO PUSH2 0x2D5 JUMPI RETURNDATASIZE PUSH1 0x0 DUP1 RETURNDATACOPY RETURNDATASIZE PUSH1 0x0 REVERT JUMPDEST POP POP POP POP PUSH1 0x40 MLOAD RETURNDATASIZE PUSH1 0x0 DUP3 RETURNDATACOPY PUSH1 0x1F RETURNDATASIZE SWAP1 DUP2 ADD PUSH1 0x1F NOT AND DUP3 ADD PUSH1 0x40 MSTORE PUSH2 0x2FD SWAP2 SWAP1 DUP2 ADD SWAP1 PUSH2 0xCB9 JUMP JUMPDEST SWAP2 POP SWAP2 POP SWAP2 POP SWAP2 JUMP JUMPDEST PUSH1 0x60 PUSH1 0x11 PUSH2 0x1EDF PUSH1 0x92 SHL ADD PUSH1 0x1 PUSH1 0x1 PUSH1 0xA0 SHL SUB AND PUSH4 0x2DEA97BA PUSH1 0x40 MLOAD DUP2 PUSH4 0xFFFFFFFF AND PUSH1 0xE0 SHL DUP2 MSTORE PUSH1 0x4 ADD PUSH1 0x0 PUSH1 0x40 MLOAD DUP1 DUP4 SUB DUP2 DUP7 GAS STATICCALL ISZERO DUP1 ISZERO PUSH2 0x34E JUMPI RETURNDATASIZE PUSH1 0x0 DUP1 RETURNDATACOPY RETURNDATASIZE PUSH1 0x0 REVERT JUMPDEST POP POP POP POP PUSH1 0x40 MLOAD RETURNDATASIZE PUSH1 0x0 DUP3 RETURNDATACOPY PUSH1 0x1F RETURNDATASIZE SWAP1 DUP2 ADD PUSH1 0x1F NOT AND DUP3 ADD PUSH1 0x40 MSTORE PUSH2 0x376 SWAP2 SWAP1 DUP2 ADD SWAP1 PUSH2 0xDE6 JUMP JUMPDEST SWAP1 POP SWAP1 JUMP JUMPDEST PUSH1 0x40 MLOAD PUSH4 0x33576275 PUSH1 0xE0 SHL DUP2 MSTORE PUSH1 0x0 SWAP1 PUSH1 0x11 PUSH2 0x1EDF PUSH1 0x92 SHL ADD SWAP1 PUSH4 0x33576275 SWAP1 PUSH2 0x3AD SWAP1 DUP8 SWAP1 DUP8 SWAP1 DUP8 SWAP1 PUSH1 0x4 ADD PUSH2 0xEE3 JUMP JUMPDEST PUSH1 0x20 PUSH1 0x40 MLOAD DUP1 DUP4 SUB DUP2 PUSH1 0x0 DUP8 GAS CALL ISZERO DUP1 ISZERO PUSH2 0x3CC JUMPI RETURNDATASIZE PUSH1 0x0 DUP1 RETURNDATACOPY RETURNDATASIZE PUSH1 0x0 REVERT JUMPDEST POP POP POP POP PUSH1 0x40 MLOAD RETURNDATASIZE PUSH1 0x1F NOT PUSH1 0x1F DUP3 ADD AND DUP3 ADD DUP1 PUSH1 0x40 MSTORE POP DUP2 ADD SWAP1 PUSH2 0x3F0 SWAP2 SWAP1 PUSH2 0xF3D JUMP JUMPDEST SWAP5 SWAP4 POP POP POP POP JUMP JUMPDEST PUSH1 0x0 PUSH1 0x11 PUSH2 0x1EDF PUSH1 0x92 SHL ADD PUSH1 0x1 PUSH1 0x1 PUSH1 0xA0 SHL SUB AND PUSH4 0x54023A4E PUSH1 0x40 MLOAD DUP2 PUSH4 0xFFFFFFFF AND PUSH1 0xE0 SHL DUP2 MSTORE PUSH1 0x4 ADD PUSH1 0x20 PUSH1 0x40 MLOAD DUP1 DUP4 SUB DUP2 PUSH1 0x0 DUP8 GAS CALL ISZERO DUP1 ISZERO PUSH2 0x442 JUMPI RETURNDATASIZE PUSH1 0x0 DUP1 RETURNDATACOPY RETURNDATASIZE PUSH1 0x0 REVERT JUMPDEST POP POP POP POP PUSH1 0x40 MLOAD RETURNDATASIZE PUSH1 0x1F NOT PUSH1 0x1F DUP3 ADD AND DUP3 ADD DUP1 PUSH1 0x40 MSTORE POP DUP2 ADD SWAP1 PUSH2 0x376 SWAP2 SWAP1 PUSH2 0xF3D JUMP JUMPDEST PUSH1 0x40 MLOAD PUSH4 0x617177F5 PUSH1 0xE0 SHL DUP2 MSTORE PUSH1 0xFF DUP3 AND PUSH1 0x4 DUP3 ADD MSTORE PUSH1 0x60 SWAP1 PUSH1 0x11 PUSH2 0x1EDF PUSH1 0x92 SHL ADD SWAP1 PUSH4 0x617177F5 SWAP1 PUSH1 0x24 ADD PUSH1 0x0 PUSH1 0x40 MLOAD DUP1 DUP4 SUB DUP2 DUP7 GAS STATICCALL ISZERO DUP1 ISZERO PUSH2 0x4AF JUMPI RETURNDATASIZE PUSH1 0x0 DUP1 RETURNDATACOPY RETURNDATASIZE PUSH1 0x0 REVERT JUMPDEST POP POP POP POP PUSH1 0x40 MLOAD RETURNDATASIZE PUSH1 0x0 DUP3 RETURNDATACOPY PUSH1 0x1F RETURNDATASIZE SWAP1 DUP2 ADD PUSH1 0x1F NOT AND DUP3 ADD PUSH1 0x40 MSTORE PUSH2 0x4D7 SWAP2 SWAP1 DUP2 ADD SWAP1 PUSH2 0xF5F JUMP JUMPDEST SWAP3 SWAP2 POP POP JUMP JUMPDEST PUSH1 0x40 MLOAD PUSH4 0x644BB08B PUSH1 0xE0 SHL DUP2 MSTORE PUSH1 0x0 SWAP1 PUSH1 0x11 PUSH2 0x1EDF PUSH1 0x92 SHL ADD SWAP1 PUSH4 0x644BB08B SWAP1 PUSH2 0x3AD SWAP1 DUP8 SWAP1 DUP8 SWAP1 DUP8 SWAP1 PUSH1 0x4 ADD PUSH2 0xEE3 JUMP JUMPDEST PUSH1 0x40 MLOAD PUSH4 0x6A050F5F PUSH1 0xE0 SHL DUP2 MSTORE PUSH1 0x0 SWAP1 PUSH1 0x11 PUSH2 0x1EDF PUSH1 0x92 SHL ADD SWAP1 PUSH4 0x6A050F5F SWAP1 PUSH2 0x53F SWAP1 DUP7 SWAP1 DUP7 SWAP1 PUSH1 0x4 ADD PUSH2 0x106F JUMP JUMPDEST PUSH1 0x20 PUSH1 0x40 MLOAD DUP1 DUP4 SUB DUP2 PUSH1 0x0 DUP8 GAS CALL ISZERO DUP1 ISZERO PUSH2 0x55E JUMPI RETURNDATASIZE PUSH1 0x0 DUP1 RETURNDATACOPY RETURNDATASIZE PUSH1 0x0 REVERT JUMPDEST POP POP POP POP PUSH1 0x40 MLOAD RETURNDATASIZE PUSH1 0x1F NOT PUSH1 0x1F DUP3 ADD AND DUP3 ADD DUP1 PUSH1 0x40 MSTORE POP DUP2 ADD SWAP1 PUSH2 0x582 SWAP2 SWAP1 PUSH2 0xF3D JUMP JUMPDEST SWAP4 SWAP3 POP POP POP JUMP JUMPDEST PUSH1 0x0 PUSH1 0x11 PUSH2 0x1EDF PUSH1 0x92 SHL ADD PUSH1 0x1 PUSH1 0x1 PUSH1 0xA0 SHL SUB AND PUSH4 0x79BA5097 PUSH1 0x40 MLOAD DUP2 PUSH4 0xFFFFFFFF AND PUSH1 0xE0 SHL DUP2 MSTORE PUSH1 0x4 ADD PUSH1 0x20 PUSH1 0x40 MLOAD DUP1 DUP4 SUB DUP2 PUSH1 0x0 DUP8 GAS CALL ISZERO DUP1 ISZERO PUSH2 0x442 JUMPI RETURNDATASIZE PUSH1 0x0 DUP1 RETURNDATACOPY RETURNDATASIZE PUSH1 0x0 REVERT JUMPDEST PUSH1 0x60 PUSH1 0x11 PUSH2 0x1EDF PUSH1 0x92 SHL ADD PUSH1 0x1 PUSH1 0x1 PUSH1 0xA0 SHL SUB AND PUSH4 0x7CE5E82F PUSH1 0x40 MLOAD DUP2 PUSH4 0xFFFFFFFF AND PUSH1 0xE0 SHL DUP2 MSTORE PUSH1 0x4 ADD PUSH1 0x0 PUSH1 0x40 MLOAD DUP1 DUP4 SUB DUP2 DUP7 GAS STATICCALL ISZERO DUP1 ISZERO PUSH2 0x61B JUMPI RETURNDATASIZE PUSH1 0x0 DUP1 RETURNDATACOPY RETURNDATASIZE PUSH1 0x0 REVERT JUMPDEST POP POP POP POP PUSH1 0x40 MLOAD RETURNDATASIZE PUSH1 0x0 DUP3 RETURNDATACOPY PUSH1 0x1F RETURNDATASIZE SWAP1 DUP2 ADD PUSH1 0x1F NOT AND DUP3 ADD PUSH1 0x40 MSTORE PUSH2 0x376 SWAP2 SWAP1 DUP2 ADD SWAP1 PUSH2 0xF5F JUMP JUMPDEST PUSH1 0x0 PUSH2 0x677 PUSH1 0x40 MLOAD DUP1 PUSH1 0xA0 ADD PUSH1 0x40 MSTORE DUP1 PUSH1 0x60 DUP2 MSTORE PUSH1 0x20 ADD PUSH1 0x60 DUP2 MSTORE PUSH1 0x20 ADD PUSH1 0x60 DUP2 MSTORE PUSH1 0x20 ADD PUSH1 0x60 DUP2 MSTORE PUSH1 0x20 ADD PUSH1 0x60 DUP2 MSTORE POP SWAP1 JUMP JUMPDEST PUSH1 0x40 MLOAD PUSH4 0x8BD2CC11 PUSH1 0xE0 SHL DUP2 MSTORE PUSH1 0x1 PUSH1 0x1 PUSH1 0xA0 SHL SUB DUP5 AND PUSH1 0x4 DUP3 ADD MSTORE PUSH1 0x11 PUSH2 0x1EDF PUSH1 0x92 SHL ADD SWAP1 PUSH4 0x8BD2CC11 SWAP1 PUSH1 0x24 ADD PUSH2 0x2B8 JUMP JUMPDEST PUSH1 0x0 PUSH1 0x11 PUSH2 0x1EDF PUSH1 0x92 SHL ADD PUSH1 0x1 PUSH1 0x1 PUSH1 0xA0 SHL SUB AND PUSH4 0x8DA5CB5B PUSH1 0x40 MLOAD DUP2 PUSH4 0xFFFFFFFF AND PUSH1 0xE0 SHL DUP2 MSTORE PUSH1 0x4 ADD PUSH1 0x20 PUSH1 0x40 MLOAD DUP1 DUP4 SUB DUP2 DUP7 GAS STATICCALL ISZERO DUP1 ISZERO PUSH2 0x6F3 JUMPI RETURNDATASIZE PUSH1 0x0 DUP1 RETURNDATACOPY RETURNDATASIZE PUSH1 0x0 REVERT JUMPDEST POP POP POP POP PUSH1 0x40 MLOAD RETURNDATASIZE PUSH1 0x1F NOT PUSH1 0x1F DUP3 ADD AND DUP3 ADD DUP1 PUSH1 0x40 MSTORE POP DUP2 ADD SWAP1 PUSH2 0x376 SWAP2 SWAP1 PUSH2 0x113B JUMP JUMPDEST PUSH1 0x40 MLOAD PUSH4 0x96C55175 PUSH1 0xE0 SHL DUP2 MSTORE PUSH1 0x1 PUSH1 0x1 PUSH1 0xA0 SHL SUB DUP3 AND PUSH1 0x4 DUP3 ADD MSTORE PUSH1 0x0 SWAP1 PUSH1 0x11 PUSH2 0x1EDF PUSH1 0x92 SHL ADD SWAP1 PUSH4 0x96C55175 SWAP1 PUSH1 0x24 ADD JUMPDEST PUSH1 0x20 PUSH1 0x40 MLOAD DUP1 DUP4 SUB DUP2 PUSH1 0x0 DUP8 GAS CALL ISZERO DUP1 ISZERO PUSH2 0x769 JUMPI RETURNDATASIZE PUSH1 0x0 DUP1 RETURNDATACOPY RETURNDATASIZE PUSH1 0x0 REVERT JUMPDEST POP POP POP POP PUSH1 0x40 MLOAD RETURNDATASIZE PUSH1 0x1F NOT PUSH1 0x1F DUP3 ADD AND DUP3 ADD DUP1 PUSH1 0x40 MSTORE POP DUP2 ADD SWAP1 PUSH2 0x4D7 SWAP2 SWAP1 PUSH2 0xF3D JUMP JUMPDEST PUSH1 0x0 PUSH1 0x11 PUSH2 0x1EDF PUSH1 0x92 SHL ADD PUSH1 0x1 PUSH1 0x1 PUSH1 0xA0 SHL SUB AND PUSH4 0xC105EA2B PUSH1 0x40 MLOAD DUP2 PUSH4 0xFFFFFFFF AND PUSH1 0xE0 SHL DUP2 MSTORE PUSH1 0x4 ADD PUSH1 0x20 PUSH1 0x40 MLOAD DUP1 DUP4 SUB DUP2 DUP7 GAS STATICCALL ISZERO DUP1 ISZERO PUSH2 0x6F3 JUMPI RETURNDATASIZE PUSH1 0x0 DUP1 RETURNDATACOPY RETURNDATASIZE PUSH1 0x0 REVERT JUMPDEST PUSH1 0x60 PUSH1 0x11 PUSH2 0x1EDF PUSH1 0x92 SHL ADD PUSH1 0x1 PUSH1 0x1 PUSH1 0xA0 SHL SUB AND PUSH4 0xCA1E7819 PUSH1 0x40 MLOAD DUP2 PUSH4 0xFFFFFFFF AND PUSH1 0xE0 SHL DUP2 MSTORE PUSH1 0x4 ADD PUSH1 0x0 PUSH1 0x40 MLOAD DUP1 DUP4 SUB DUP2 DUP7 GAS STATICCALL ISZERO DUP1 ISZERO PUSH2 0x61B JUMPI RETURNDATASIZE PUSH1 0x0 DUP1 RETURNDATACOPY RETURNDATASIZE PUSH1 0x0 REVERT JUMPDEST PUSH1 0x0 PUSH1 0x11 PUSH2 0x1EDF PUSH1 0x92 SHL ADD PUSH1 0x1 PUSH1 0x1 PUSH1 0xA0 SHL SUB AND PUSH4 0xD66D9E19 PUSH1 0x40 MLOAD DUP2 PUSH4 0xFFFFFFFF AND PUSH1 0xE0 SHL DUP2 MSTORE PUSH1 0x4 ADD PUSH1 0x20 PUSH1 0x40 MLOAD DUP1 DUP4 SUB DUP2 PUSH1 0x0 DUP8 GAS CALL ISZERO DUP1 ISZERO PUSH2 0x442 JUMPI RETURNDATASIZE PUSH1 0x0 DUP1 RETURNDATACOPY RETURNDATASIZE PUSH1 0x0 REVERT JUMPDEST PUSH1 0x40 MLOAD PUSH4 0x71D72685 PUSH1 0xE1 SHL DUP2 MSTORE PUSH1 0x1 PUSH1 0x1 PUSH1 0xA0 SHL SUB DUP3 AND PUSH1 0x4 DUP3 ADD MSTORE PUSH1 0x0 SWAP1 PUSH1 0x11 PUSH2 0x1EDF PUSH1 0x92 SHL ADD SWAP1 PUSH4 0xE3AE4D0A SWAP1 PUSH1 0x24 ADD PUSH2 0x74A JUMP JUMPDEST PUSH1 0x40 MLOAD PUSH4 0xF2FDE38B PUSH1 0xE0 SHL DUP2 MSTORE PUSH1 0x1 PUSH1 0x1 PUSH1 0xA0 SHL SUB DUP3 AND PUSH1 0x4 DUP3 ADD MSTORE PUSH1 0x0 SWAP1 PUSH1 0x11 PUSH2 0x1EDF PUSH1 0x92 SHL ADD SWAP1 PUSH4 0xF2FDE38B SWAP1 PUSH1 0x24 ADD PUSH2 0x74A JUMP JUMPDEST PUSH1 0x1 PUSH1 0x1 PUSH1 0xA0 SHL SUB DUP2 AND DUP2 EQ PUSH2 0x8EA JUMPI PUSH1 0x0 DUP1 REVERT JUMPDEST POP JUMP JUMPDEST PUSH1 0x0 PUSH1 0x20 DUP3 DUP5 SUB SLT ISZERO PUSH2 0x8FF JUMPI PUSH1 0x0 DUP1 REVERT JUMPDEST DUP2 CALLDATALOAD PUSH2 0x582 DUP2 PUSH2 0x8D5 JUMP JUMPDEST PUSH1 0x0 JUMPDEST DUP4 DUP2 LT ISZERO PUSH2 0x925 JUMPI DUP2 DUP2 ADD MLOAD DUP4 DUP3 ADD MSTORE PUSH1 0x20 ADD PUSH2 0x90D JUMP JUMPDEST POP POP PUSH1 0x0 SWAP2 ADD MSTORE JUMP JUMPDEST PUSH1 0x0 DUP2 MLOAD DUP1 DUP5 MSTORE PUSH2 0x946 DUP2 PUSH1 0x20 DUP7 ADD PUSH1 0x20 DUP7 ADD PUSH2 0x90A JUMP JUMPDEST PUSH1 0x1F ADD PUSH1 0x1F NOT AND SWAP3 SWAP1 SWAP3 ADD PUSH1 0x20 ADD SWAP3 SWAP2 POP POP JUMP JUMPDEST DUP3 DUP2 MSTORE PUSH1 0x40 PUSH1 0x20 DUP3 ADD MSTORE PUSH1 0x0 DUP3 MLOAD PUSH1 0xA0 PUSH1 0x40 DUP5 ADD MSTORE PUSH2 0x97C PUSH1 0xE0 DUP5 ADD DUP3 PUSH2 0x92E JUMP JUMPDEST SWAP1 POP PUSH1 0x20 DUP5 ADD MLOAD PUSH1 0x3F NOT DUP1 DUP6 DUP5 SUB ADD PUSH1 0x60 DUP7 ADD MSTORE PUSH2 0x99A DUP4 DUP4 PUSH2 0x92E JUMP JUMPDEST SWAP3 POP PUSH1 0x40 DUP7 ADD MLOAD SWAP2 POP DUP1 DUP6 DUP5 SUB ADD PUSH1 0x80 DUP7 ADD MSTORE PUSH2 0x9B7 DUP4 DUP4 PUSH2 0x92E JUMP JUMPDEST SWAP3 POP PUSH1 0x60 DUP7 ADD MLOAD SWAP2 POP DUP1 DUP6 DUP5 SUB ADD PUSH1 0xA0 DUP7 ADD MSTORE PUSH2 0x9D4 DUP4 DUP4 PUSH2 0x92E JUMP JUMPDEST SWAP3 POP PUSH1 0x80 DUP7 ADD MLOAD SWAP2 POP DUP1 DUP6 DUP5 SUB ADD PUSH1 0xC0 DUP7 ADD MSTORE POP PUSH2 0x9F2 DUP3 DUP3 PUSH2 0x92E JUMP JUMPDEST SWAP7 SWAP6 POP POP POP POP POP POP JUMP JUMPDEST PUSH1 0x0 PUSH1 0x20 DUP1 DUP4 ADD DUP2 DUP5 MSTORE DUP1 DUP6 MLOAD DUP1 DUP4 MSTORE PUSH1 0x40 SWAP3 POP PUSH1 0x40 DUP7 ADD SWAP2 POP PUSH1 0x40 DUP2 PUSH1 0x5 SHL DUP8 ADD ADD DUP5 DUP9 ADD PUSH1 0x0 JUMPDEST DUP4 DUP2 LT ISZERO PUSH2 0xA67 JUMPI DUP9 DUP4 SUB PUSH1 0x3F NOT ADD DUP6 MSTORE DUP2 MLOAD DUP1 MLOAD PUSH1 0xFF AND DUP5 MSTORE DUP8 ADD MLOAD DUP8 DUP5 ADD DUP8 SWAP1 MSTORE PUSH2 0xA54 DUP8 DUP6 ADD DUP3 PUSH2 0x92E JUMP JUMPDEST SWAP6 DUP9 ADD SWAP6 SWAP4 POP POP SWAP1 DUP7 ADD SWAP1 PUSH1 0x1 ADD PUSH2 0xA25 JUMP JUMPDEST POP SWAP1 SWAP9 SWAP8 POP POP POP POP POP POP POP POP JUMP JUMPDEST PUSH1 0xFF DUP2 AND DUP2 EQ PUSH2 0x8EA JUMPI PUSH1 0x0 DUP1 REVERT JUMPDEST PUSH1 0x0 DUP1 PUSH1 0x0 PUSH1 0x40 DUP5 DUP7 SUB SLT ISZERO PUSH2 0xA99 JUMPI PUSH1 0x0 DUP1 REVERT JUMPDEST DUP4 CALLDATALOAD PUSH8 0xFFFFFFFFFFFFFFFF DUP1 DUP3 GT ISZERO PUSH2 0xAB1 JUMPI PUSH1 0x0 DUP1 REVERT JUMPDEST DUP2 DUP7 ADD SWAP2 POP DUP7 PUSH1 0x1F DUP4 ADD SLT PUSH2 0xAC5 JUMPI PUSH1 0x0 DUP1 REVERT JUMPDEST DUP2 CALLDATALOAD DUP2 DUP2 GT ISZERO PUSH2 0xAD4 JUMPI PUSH1 0x0 DUP1 REVERT JUMPDEST DUP8 PUSH1 0x20 DUP3 PUSH1 0x5 SHL DUP6 ADD ADD GT ISZERO PUSH2 0xAE9 JUMPI PUSH1 0x0 DUP1 REVERT JUMPDEST PUSH1 0x20 SWAP3 DUP4 ADD SWAP6 POP SWAP4 POP POP DUP5 ADD CALLDATALOAD PUSH2 0xAFF DUP2 PUSH2 0xA75 JUMP JUMPDEST DUP1 SWAP2 POP POP SWAP3 POP SWAP3 POP SWAP3 JUMP JUMPDEST PUSH1 0x0 PUSH1 0x20 DUP3 DUP5 SUB SLT ISZERO PUSH2 0xB1C JUMPI PUSH1 0x0 DUP1 REVERT JUMPDEST DUP2 CALLDATALOAD PUSH2 0x582 DUP2 PUSH2 0xA75 JUMP JUMPDEST PUSH1 0x20 DUP1 DUP3 MSTORE DUP3 MLOAD DUP3 DUP3 ADD DUP2 SWAP1 MSTORE PUSH1 0x0 SWAP2 SWAP1 DUP5 DUP3 ADD SWAP1 PUSH1 0x40 DUP6 ADD SWAP1 DUP5 JUMPDEST DUP2 DUP2 LT ISZERO PUSH2 0xB68 JUMPI DUP4 MLOAD PUSH1 0x1 PUSH1 0x1 PUSH1 0xA0 SHL SUB AND DUP4 MSTORE SWAP3 DUP5 ADD SWAP3 SWAP2 DUP5 ADD SWAP2 PUSH1 0x1 ADD PUSH2 0xB43 JUMP JUMPDEST POP SWAP1 SWAP7 SWAP6 POP POP POP POP POP POP JUMP JUMPDEST PUSH1 0x0 DUP1 PUSH1 0x40 DUP4 DUP6 SUB SLT ISZERO PUSH2 0xB87 JUMPI PUSH1 0x0 DUP1 REVERT JUMPDEST DUP3 CALLDATALOAD SWAP2 POP PUSH1 0x20 DUP4 ADD CALLDATALOAD PUSH8 0xFFFFFFFFFFFFFFFF DUP2 GT ISZERO PUSH2 0xBA5 JUMPI PUSH1 0x0 DUP1 REVERT JUMPDEST DUP4 ADD PUSH1 0xA0 DUP2 DUP7 SUB SLT ISZERO PUSH2 0xBB7 JUMPI PUSH1 0x0 DUP1 REVERT JUMPDEST DUP1 SWAP2 POP POP SWAP3 POP SWAP3 SWAP1 POP JUMP JUMPDEST PUSH4 0x4E487B71 PUSH1 0xE0 SHL PUSH1 0x0 MSTORE PUSH1 0x41 PUSH1 0x4 MSTORE PUSH1 0x24 PUSH1 0x0 REVERT JUMPDEST PUSH1 0x40 MLOAD PUSH1 0xA0 DUP2 ADD PUSH8 0xFFFFFFFFFFFFFFFF DUP2 GT DUP3 DUP3 LT OR ISZERO PUSH2 0xBFB JUMPI PUSH2 0xBFB PUSH2 0xBC2 JUMP JUMPDEST PUSH1 0x40 MSTORE SWAP1 JUMP JUMPDEST PUSH1 0x40 DUP1 MLOAD SWAP1 DUP2 ADD PUSH8 0xFFFFFFFFFFFFFFFF DUP2 GT DUP3 DUP3 LT OR ISZERO PUSH2 0xBFB JUMPI PUSH2 0xBFB PUSH2 0xBC2 JUMP JUMPDEST PUSH1 0x40 MLOAD PUSH1 0x1F DUP3 ADD PUSH1 0x1F NOT AND DUP2 ADD PUSH8 0xFFFFFFFFFFFFFFFF DUP2 GT DUP3 DUP3 LT OR ISZERO PUSH2 0xC4D JUMPI PUSH2 0xC4D PUSH2 0xBC2 JUMP JUMPDEST PUSH1 0x40 MSTORE SWAP2 SWAP1 POP JUMP JUMPDEST PUSH1 0x0 DUP3 PUSH1 0x1F DUP4 ADD SLT PUSH2 0xC66 JUMPI PUSH1 0x0 DUP1 REVERT JUMPDEST DUP2 MLOAD PUSH8 0xFFFFFFFFFFFFFFFF DUP2 GT ISZERO PUSH2 0xC80 JUMPI PUSH2 0xC80 PUSH2 0xBC2 JUMP JUMPDEST PUSH2 0xC93 PUSH1 0x1F DUP3 ADD PUSH1 0x1F NOT AND PUSH1 0x20 ADD PUSH2 0xC24 JUMP JUMPDEST DUP2 DUP2 MSTORE DUP5 PUSH1 0x20 DUP4 DUP7 ADD ADD GT ISZERO PUSH2 0xCA8 JUMPI PUSH1 0x0 DUP1 REVERT JUMPDEST PUSH2 0x3F0 DUP3 PUSH1 0x20 DUP4 ADD PUSH1 0x20 DUP8 ADD PUSH2 0x90A JUMP JUMPDEST PUSH1 0x0 DUP1 PUSH1 0x40 DUP4 DUP6 SUB SLT ISZERO PUSH2 0xCCC JUMPI PUSH1 0x0 DUP1 REVERT JUMPDEST DUP3 MLOAD SWAP2 POP PUSH1 0x20 DUP4 ADD MLOAD PUSH8 0xFFFFFFFFFFFFFFFF DUP1 DUP3 GT ISZERO PUSH2 0xCEB JUMPI PUSH1 0x0 DUP1 REVERT JUMPDEST SWAP1 DUP5 ADD SWAP1 PUSH1 0xA0 DUP3 DUP8 SUB SLT ISZERO PUSH2 0xCFF JUMPI PUSH1 0x0 DUP1 REVERT JUMPDEST PUSH2 0xD07 PUSH2 0xBD8 JUMP JUMPDEST DUP3 MLOAD DUP3 DUP2 GT ISZERO PUSH2 0xD16 JUMPI PUSH1 0x0 DUP1 REVERT JUMPDEST PUSH2 0xD22 DUP9 DUP3 DUP7 ADD PUSH2 0xC55 JUMP JUMPDEST DUP3 MSTORE POP PUSH1 0x20 DUP4 ADD MLOAD DUP3 DUP2 GT ISZERO PUSH2 0xD37 JUMPI PUSH1 0x0 DUP1 REVERT JUMPDEST PUSH2 0xD43 DUP9 DUP3 DUP7 ADD PUSH2 0xC55 JUMP JUMPDEST PUSH1 0x20 DUP4 ADD MSTORE POP PUSH1 0x40 DUP4 ADD MLOAD DUP3 DUP2 GT ISZERO PUSH2 0xD5B JUMPI PUSH1 0x0 DUP1 REVERT JUMPDEST PUSH2 0xD67 DUP9 DUP3 DUP7 ADD PUSH2 0xC55 JUMP JUMPDEST PUSH1 0x40 DUP4 ADD MSTORE POP PUSH1 0x60 DUP4 ADD MLOAD DUP3 DUP2 GT ISZERO PUSH2 0xD7F JUMPI PUSH1 0x0 DUP1 REVERT JUMPDEST PUSH2 0xD8B DUP9 DUP3 DUP7 ADD PUSH2 0xC55 JUMP JUMPDEST PUSH1 0x60 DUP4 ADD MSTORE POP PUSH1 0x80 DUP4 ADD MLOAD DUP3 DUP2 GT ISZERO PUSH2 0xDA3 JUMPI PUSH1 0x0 DUP1 REVERT JUMPDEST PUSH2 0xDAF DUP9 DUP3 DUP7 ADD PUSH2 0xC55 JUMP JUMPDEST PUSH1 0x80 DUP4 ADD MSTORE POP DUP1 SWAP4 POP POP POP POP SWAP3 POP SWAP3 SWAP1 POP JUMP JUMPDEST PUSH1 0x0 PUSH8 0xFFFFFFFFFFFFFFFF DUP3 GT ISZERO PUSH2 0xDDC JUMPI PUSH2 0xDDC PUSH2 0xBC2 JUMP JUMPDEST POP PUSH1 0x5 SHL PUSH1 0x20 ADD SWAP1 JUMP JUMPDEST PUSH1 0x0 PUSH1 0x20 DUP1 DUP4 DUP6 SUB SLT ISZERO PUSH2 0xDF9 JUMPI PUSH1 0x0 DUP1 REVERT JUMPDEST DUP3 MLOAD PUSH8 0xFFFFFFFFFFFFFFFF DUP1 DUP3 GT ISZERO PUSH2 0xE11 JUMPI PUSH1 0x0 DUP1 REVERT JUMPDEST DUP2 DUP6 ADD SWAP2 POP DUP6 PUSH1 0x1F DUP4 ADD SLT PUSH2 0xE25 JUMPI PUSH1 0x0 DUP1 REVERT JUMPDEST DUP2 MLOAD PUSH2 0xE38 PUSH2 0xE33 DUP3 PUSH2 0xDC2 JUMP JUMPDEST PUSH2 0xC24 JUMP JUMPDEST DUP2 DUP2 MSTORE PUSH1 0x5 SWAP2 SWAP1 SWAP2 SHL DUP4 ADD DUP5 ADD SWAP1 DUP5 DUP2 ADD SWAP1 DUP9 DUP4 GT ISZERO PUSH2 0xE57 JUMPI PUSH1 0x0 DUP1 REVERT JUMPDEST DUP6 DUP6 ADD JUMPDEST DUP4 DUP2 LT ISZERO PUSH2 0xED6 JUMPI DUP1 MLOAD DUP6 DUP2 GT ISZERO PUSH2 0xE73 JUMPI PUSH1 0x0 DUP1 DUP2 REVERT JUMPDEST DUP7 ADD PUSH1 0x40 DUP2 DUP13 SUB PUSH1 0x1F NOT ADD DUP2 SGT ISZERO PUSH2 0xE8B JUMPI PUSH1 0x0 DUP1 DUP2 REVERT JUMPDEST PUSH2 0xE93 PUSH2 0xC01 JUMP JUMPDEST DUP10 DUP4 ADD MLOAD PUSH2 0xEA0 DUP2 PUSH2 0xA75 JUMP JUMPDEST DUP2 MSTORE SWAP1 DUP3 ADD MLOAD SWAP1 DUP8 DUP3 GT ISZERO PUSH2 0xEB5 JUMPI PUSH1 0x0 DUP1 DUP2 REVERT JUMPDEST PUSH2 0xEC3 DUP14 DUP12 DUP5 DUP7 ADD ADD PUSH2 0xC55 JUMP JUMPDEST DUP2 DUP12 ADD MSTORE DUP6 MSTORE POP POP SWAP2 DUP7 ADD SWAP2 DUP7 ADD PUSH2 0xE5B JUMP JUMPDEST POP SWAP9 SWAP8 POP POP POP POP POP POP POP POP JUMP JUMPDEST PUSH1 0x40 DUP1 DUP3 MSTORE DUP2 ADD DUP4 SWAP1 MSTORE PUSH1 0x0 DUP5 PUSH1 0x60 DUP4 ADD DUP3 JUMPDEST DUP7 DUP2 LT ISZERO PUSH2 0xF26 JUMPI DUP3 CALLDATALOAD PUSH2 0xF09 DUP2 PUSH2 0x8D5 JUMP JUMPDEST PUSH1 0x1 PUSH1 0x1 PUSH1 0xA0 SHL SUB AND DUP3 MSTORE PUSH1 0x20 SWAP3 DUP4 ADD SWAP3 SWAP1 SWAP2 ADD SWAP1 PUSH1 0x1 ADD PUSH2 0xEF6 JUMP JUMPDEST POP DUP1 SWAP3 POP POP POP PUSH1 0xFF DUP4 AND PUSH1 0x20 DUP4 ADD MSTORE SWAP5 SWAP4 POP POP POP POP JUMP JUMPDEST PUSH1 0x0 PUSH1 0x20 DUP3 DUP5 SUB SLT ISZERO PUSH2 0xF4F JUMPI PUSH1 0x0 DUP1 REVERT JUMPDEST DUP2 MLOAD DUP1 ISZERO ISZERO DUP2 EQ PUSH2 0x582 JUMPI PUSH1 0x0 DUP1 REVERT JUMPDEST PUSH1 0x0 PUSH1 0x20 DUP1 DUP4 DUP6 SUB SLT ISZERO PUSH2 0xF72 JUMPI PUSH1 0x0 DUP1 REVERT JUMPDEST DUP3 MLOAD PUSH8 0xFFFFFFFFFFFFFFFF DUP2 GT ISZERO PUSH2 0xF89 JUMPI PUSH1 0x0 DUP1 REVERT JUMPDEST DUP4 ADD PUSH1 0x1F DUP2 ADD DUP6 SGT PUSH2 0xF9A JUMPI PUSH1 0x0 DUP1 REVERT JUMPDEST DUP1 MLOAD PUSH2 0xFA8 PUSH2 0xE33 DUP3 PUSH2 0xDC2 JUMP JUMPDEST DUP2 DUP2 MSTORE PUSH1 0x5 SWAP2 SWAP1 SWAP2 SHL DUP3 ADD DUP4 ADD SWAP1 DUP4 DUP2 ADD SWAP1 DUP8 DUP4 GT ISZERO PUSH2 0xFC7 JUMPI PUSH1 0x0 DUP1 REVERT JUMPDEST SWAP3 DUP5 ADD SWAP3 JUMPDEST DUP3 DUP5 LT ISZERO PUSH2 0xFEE JUMPI DUP4 MLOAD PUSH2 0xFDF DUP2 PUSH2 0x8D5 JUMP JUMPDEST DUP3 MSTORE SWAP3 DUP5 ADD SWAP3 SWAP1 DUP5 ADD SWAP1 PUSH2 0xFCC JUMP JUMPDEST SWAP8 SWAP7 POP POP POP POP POP POP POP JUMP JUMPDEST PUSH1 0x0 DUP1 DUP4 CALLDATALOAD PUSH1 0x1E NOT DUP5 CALLDATASIZE SUB ADD DUP2 SLT PUSH2 0x1010 JUMPI PUSH1 0x0 DUP1 REVERT JUMPDEST DUP4 ADD PUSH1 0x20 DUP2 ADD SWAP3 POP CALLDATALOAD SWAP1 POP PUSH8 0xFFFFFFFFFFFFFFFF DUP2 GT ISZERO PUSH2 0x1030 JUMPI PUSH1 0x0 DUP1 REVERT JUMPDEST DUP1 CALLDATASIZE SUB DUP3 SGT ISZERO PUSH2 0x103F JUMPI PUSH1 0x0 DUP1 REVERT JUMPDEST SWAP3 POP SWAP3 SWAP1 POP JUMP JUMPDEST DUP2 DUP4 MSTORE DUP2 DUP2 PUSH1 0x20 DUP6 ADD CALLDATACOPY POP PUSH1 0x0 DUP3 DUP3 ADD PUSH1 0x20 SWAP1 DUP2 ADD SWAP2 SWAP1 SWAP2 MSTORE PUSH1 0x1F SWAP1 SWAP2 ADD PUSH1 0x1F NOT AND SWAP1 SWAP2 ADD ADD SWAP1 JUMP JUMPDEST DUP3 DUP2 MSTORE PUSH1 0x40 PUSH1 0x20 DUP3 ADD MSTORE PUSH1 0x0 PUSH2 0x1085 DUP4 DUP5 PUSH2 0xFF9 JUMP JUMPDEST PUSH1 0xA0 PUSH1 0x40 DUP6 ADD MSTORE PUSH2 0x109A PUSH1 0xE0 DUP6 ADD DUP3 DUP5 PUSH2 0x1046 JUMP JUMPDEST SWAP2 POP POP PUSH2 0x10AA PUSH1 0x20 DUP6 ADD DUP6 PUSH2 0xFF9 JUMP JUMPDEST PUSH1 0x3F NOT DUP1 DUP7 DUP6 SUB ADD PUSH1 0x60 DUP8 ADD MSTORE PUSH2 0x10C2 DUP5 DUP4 DUP6 PUSH2 0x1046 JUMP JUMPDEST SWAP4 POP PUSH2 0x10D1 PUSH1 0x40 DUP9 ADD DUP9 PUSH2 0xFF9 JUMP JUMPDEST SWAP4 POP SWAP2 POP DUP1 DUP7 DUP6 SUB ADD PUSH1 0x80 DUP8 ADD MSTORE PUSH2 0x10EA DUP5 DUP5 DUP5 PUSH2 0x1046 JUMP JUMPDEST SWAP4 POP PUSH2 0x10F9 PUSH1 0x60 DUP9 ADD DUP9 PUSH2 0xFF9 JUMP JUMPDEST SWAP4 POP SWAP2 POP DUP1 DUP7 DUP6 SUB ADD PUSH1 0xA0 DUP8 ADD MSTORE PUSH2 0x1112 DUP5 DUP5 DUP5 PUSH2 0x1046 JUMP JUMPDEST SWAP4 POP PUSH2 0x1121 PUSH1 0x80 DUP9 ADD DUP9 PUSH2 0xFF9 JUMP JUMPDEST SWAP4 POP SWAP2 POP DUP1 DUP7 DUP6 SUB ADD PUSH1 0xC0 DUP8 ADD MSTORE POP PUSH2 0xFEE DUP4 DUP4 DUP4 PUSH2 0x1046 JUMP JUMPDEST PUSH1 0x0 PUSH1 0x20 DUP3 DUP5 SUB SLT ISZERO PUSH2 0x114D JUMPI PUSH1 0x0 DUP1 REVERT JUMPDEST DUP2 MLOAD PUSH2 0x582 DUP2 PUSH2 0x8D5 JUMP INVALID LOG2 PUSH5 0x6970667358 0x22 SLT KECCAK256 0xAC 0xE6 0x21 DUP9 RETURNDATACOPY 0xAC PUSH5 0xE4D0B90D09 0xC4 SSTORE EQ 0xE8 RETURNDATACOPY MSIZE 0xF6 SHR 0xA5 0xDF 0xA6 SDIV BYTE 0xBB SLOAD 0xE9 GAS DUP15 0xFC 0xE1 PUSH5 0x736F6C6343 STOP ADDMOD XOR STOP CALLER "
        },
        "methodIdentifiers": {
          "acceptOwnership()": "79ba5097",
          "addPrivilege(address[],uint8)": "644bb08b",
          "application(address)": "8bd2cc11",
          "applications()": "7ce5e82f",
          "approveApplication(address)": "e3ae4d0a",
          "candidateOwner()": "c105ea2b",
          "cleanupApplications()": "54023a4e",
          "kick(address)": "96c55175",
          "leave()": "d66d9e19",
          "owner()": "8da5cb5b",
          "privileges()": "2dea97ba",
          "removePrivilege(address[],uint8)": "33576275",
          "submitApplication(bytes32,(string,string,string,string,string))": "6a050f5f",
          "transferOwnership(address)": "f2fde38b",
          "validator(address)": "223b3b7a",
          "validators()": "ca1e7819",
          "validatorsByPrivilege(uint8)": "617177f5"
        }
      }
    }
  }
}